:020000040800F2
:1000000028040020150D0008010D0008030D00084C
:10001000050D0008070D0008090D0008000000008C
:100020000000000000000000000000000B0D0008B0
:100030000D0D0008000000000F0D0008110D000854
:10004000310D0008350D0008390D00083D0D000880
:10005000410D0008450D0008490D00084D0D000830
:10006000510D0008550D0008590D00085D0D0008E0
:10007000610D0008650D0008690D00086D0D000890
:10008000710D0008750D0008790D00087D0D000840
:10009000810D0008850D0008890D00088D0D0008F0
:1000A000910D0008950D0008990D00089D0D0008A0
:1000B000A10D0008A50D0008A90D0008AD0D000850
:1000C000B10D0008B50D0008B90D0008BD0D000800
:1000D000C10D0008C50D0008C90D0008CD0D0008B0
:1000E000D10D0008D50D0008D90D0008DD0D000860
:1000F000E10D0008E50D0008E90D0008ED0D000810
:10010000F10D0008F50D0008F90D0008FD0D0008BF
:10011000010E0008050E0008090E00080D0E00086B
:10012000110E0008150E0008190E00081D0E00081B
:10013000210E00080000000000000000250E00084D
:10014000290E00082D0E0008310E0008350E00089B
:10015000390E00083D0E0008410E0008450E00084B
:10016000490E00084D0E0008510E0008550E0008FB
:10017000590E00085D0E0008610E00080000000026
:1001800000000000650E00080000000000000000F4
:10019000690E000800000000000000006D0E00085D
:1001A000000000000000000000000000710E0008C8
:1001B000750E0008790E00087D0E0008810E0008FB
:1001C000850E00082DE9F041DFF85443DFF848635D
:1001D0006268DFF8480302F00C02042A15D0082AEE
:1001E00002D00C2A08D00FE000F011F82168C1F30A
:1001F0000141491C490004E000F009F82168C1F3FD
:100200000271B0FBF1F000E03046BDE8F0812268F9
:10021000256800236D0202F03F0207D52568C5F36B
:100220008811A0FB01673046394604E02068C0F31E
:100230008818A6FB080100F079B92DE9F8430446B7
:10024000DFF8CC522078C00748D500F05DF90428CB
:100250000DD000F059F9082802D16868400206D490
:1002600000F052F90C2809D16868400206D52868C8
:10027000800333D5606888BB012039E16068B0F540
:10028000803F06D0B0F5A02F286806D140F480202A
:100290002860286840F4803005E020F48030286031
:1002A000286820F480202860606858B100F0F1F9D7
:1002B00007462868800311D400F0EBF9C01B6528BD
:1002C000F7D312E100F0E5F907462868800305D569
:1002D00000F0DFF9C01B6528F7D306E12078914EC6
:1002E00080071FD5A86810F00C0F0DD000F00CF996
:1002F000082802D16868400206D500F005F90C28EC
:1003000024D16868400221D42868800702D5E068BB
:100310000128B1D128686FF0F8010840216940EA4E
:10032000C1002860207800073AD561697E4851B342
:100330000121016000F0ADF90746686F80072FD4F6
:1003400000F0A7F9C01B0328F7D3CEE0E06868B13E
:100350000120306000F09DF9074628688007D9D455
:1003600000F097F9C01B0328F7D3BEE0306000F01F
:1003700090F9074628688007D4D500F08AF9C01B99
:100380000328F7D3B1E0016000F083F90746686FF6
:10039000800705D500F07DF9C01B0328F7D3A4E042
:1003A0002078400762D5286CC0004FF000080CD4BC
:1003B000CDF800804FF00108286C40F08050286490
:1003C000286C00F0805000900098DFF84891D9F830
:1003D0000000C00512D4D9F8000040F48070C9F8BC
:1003E000000000F056F90746D9F80000C00505D412
:1003F00000F04FF9C01B0328F6D376E0A06801286F
:1004000005D00528286F06D140F004002867286F22
:1004100040F0010006E04008400028676FF004014A
:10042000286F0840286741F28939A06858B100F068
:1004300030F90746286F800711D400F02AF9C01B55
:100440004845F7D351E000F024F90746286F8007AC
:1004500005D500F01EF9C01B4845F7D345E0B8F1BB
:10046000000F03D0286C20F080502864A069002879
:100470003DD0A96801F00C0108293FF4FDAE022827
:1004800028D100F03DF807462868800105D500F026
:1004900000F9C01B0328F7D327E0E069216A08436D
:1004A000616A40EA8110A16A00F024F8E16A40EA3A
:1004B0000160216B40EA01706860012000F021F8C2
:1004C00007462868800112D400F0E3F8C01B032817
:1004D000F7D30AE000F014F807462868800106D533
:1004E00000F0D7F8C01B0328F7D3032000E000205A
:1004F000BDE8F283891EC903090C40EA0140704738
:100500000020306600F0C5B8A86800F00C00704705
:1005100000380240007000400024F40000127A000D
:100520000438024000004742800E47421B4213D16C
:10053000094236D12AB18446B0FBF2F002FB10C268
:10054000704700F0C1B8FCD30022002370470B00B5
:100550000200002100207047904271EB030CF6D39B
:1005600070B5B1FA81F4B3FA83F52C1BA340C4F142
:10057000200532FA05F63343A2405FF00046E6401C
:1005800002E05B085FEA3202841A71EB030524BFC4
:10059000204629467641F4D302000B0030000021AA
:1005A00070BD012ACFD970B5140C20D0B1FA81F4F6
:1005B000B2FA82F5C4F120046419B4F12006D6D34E
:1005C000B2405FF00044F440002502E052085FEAC8
:1005D0003303C61A71EB020E24BF304671466441E4
:1005E0006D41F3D302000B002000290070BD0C46C2
:1005F000B1FBF2F102FB11452D0445EA1045B5FBB4
:10060000F2F402FB145580B240EA0545B5FBF2F066
:1006100002FB105240EA044070BD000080B527483C
:10062000016841F400710160016841F4806101607A
:10063000016841F480710160032000F054F80F203C
:1006400000F005F800F002F8002002BD704738B550
:100650001B4D297804464FF47A70B0FBF1F019492C
:100660000968B1FBF0F000F068F850B9102C08D21E
:10067000002221464FF0FF3000F042F8AC6000202D
:1006800032BD012032BD0E484168027889184160B0
:1006900070470B484068704738B50446FFF7F9FFCC
:1006A00014F1010F054602D0054800782418FFF721
:1006B000F0FF401BA042FAD331BD0000003C0240D5
:1006C000000000200C0000207047000009010028F5
:1006D00006D5244A00F00F00104400F8041C7047AF
:1006E000214A1154704721490A684FF6FF0300025E
:1006F0001A4000F4E06010431D4A10430860704740
:1007000038B51A4B1B68C3F30223C3F10704052C49
:1007100028BF04241D1D072D34BF0023DB1E012527
:1007200005FA04F4641E2140994005FA03F35B1EA8
:100730001A401143BDE83440C8E710B5401EB0F17F
:10074000807F01D3012010BD0A4C60600F214FF063
:10075000FF30FFF7BBFF0020A060072020600020D3
:1007600010BD000018ED00E000E400E00CED00E03A
:100770000000FA0510E000E02DE9F84F02460023E2
:10078000DFF89881DFF89891DFF898A14FF00F0B10
:1007900001200C68984000EA040E864540F0B380C2
:1007A0004D689C00022D18BF122D0FD1DD0802EB01
:1007B000850C04F01C05DCF820600BFA05F7BE433D
:1007C0000F6907FA05F53543CCF820504FEA430C82
:1007D000032516680F7905FA0CF5ED4307F00307BA
:1007E0002E4007FA0CF73E4316604E68012E18BFE4
:1007F000022E03D0112E18BF122E0FD19668CF688B
:100800002E4007FA0CF73E439660566826EA000031
:100810004E68C6F300169E4030435060D0682840B2
:100820008D6805FA0CF52843D0604868C0006AD589
:100830000020009004F00C06DAF8000040F480403C
:10084000CAF800000BFA06F4DAF8000000F4804061
:1008500000900098980859F8205025EA0404324D79
:10086000AA4208BF00251DD0304DAA4208BF01256D
:1008700018D02F4DAA4208BF022513D02D4DAA42F1
:1008800008BF03250ED02C4DAA4208BF042509D06D
:100890002A4DAA4208BF052504D0294DAA420CBF03
:1008A00006250725B5402C4349F820406FEA0E0085
:1008B000D8F8004000EA040C4C68E40348BF4EEA54
:1008C0000C0CC8F800C0D8F8044000EA040C4C68CE
:1008D000A40348BF4EEA0C0CC8F804C0D8F808407E
:1008E00000EA040C4C68E40248BF4EEA0C0CC8F85D
:1008F00008C0D8F80C4020404C68A40248BF4EEA1B
:100900000000C8F80C005B1C102BFFF441AFBDE8E1
:10091000F18F42695140416170470000003C014045
:100920000838014044380240000002400004024000
:1009300000080240000C0240001002400014024077
:10094000001802402DE9F04104000D4653D0404EFE
:1009500000F077F802D200F073F84CD120683B4FDA
:10096000810713D5400703D5B86840F4E050B8605C
:100970002078000703D5B86840F46040B8606FF095
:10098000F001B8680840A1680843B8602078C00743
:1009900029D56068012802D13968890305E0022859
:1009A00018BF032803D13968890103D423E03968CB
:1009B000890720D5B968890840EA8100B860FFF747
:1009C00068FE8046B868616800F00C00B0EB810FEB
:1009D00009D0FFF75EFEA0EB080041F289318842A2
:1009E000F0D303202AE0306800F00F00854204D2E3
:1009F00000F026F801D0012020E02078400705D53E
:100A0000B868E16820F4E0500843B8602078000737
:100A100006D5B868216920F4604040EAC100B8609A
:100A2000FFF7D0FBBA680B49C2F30312895CC840D8
:100A3000094908600F20FFF70AFE0020BDE8F08199
:100A40003570306800F00F00A8427047003802404F
:100A5000003C0240180C00080C00002010B582B0C9
:100A6000FFF7DCFD00F020F800200090344C354802
:100A7000016841F0010101600068334900F00100A4
:100A800000900098202008600120486088600220C3
:100A9000C8602046FFF770FE20212046FFF739FF8F
:100AA0006420FFF7F9FDF7E700B593B00020009050
:100AB0002648016841F080510160006800F08050D4
:100AC00000900098002000902148016841F44041C6
:100AD0000160006800F440400090009802200690F9
:100AE0000120099010200A9002200C9000200D9007
:100AF00010200E904FF4B4700F9002201090072039
:100B000011900620129006A8FFF797FB00B1FEE7B0
:100B100000F020F800B1FEE70F200190052102202F
:100B20000290002003904FF4A05004900020059004
:100B300001A8FFF707FF00B1FEE713B000BD0000FA
:100B400000000240303802401000002040380240CF
:100B500000700040F8B500F01FF801202060FFF79A
:100B600098FD07463068C00305D4FFF792FDC01B0F
:100B7000A842F7D30CE001206060FFF78AFD07462A
:100B80003068800306D4FFF784FDC01BA842F7D36A
:100B90000320F2BD0020F2BD0020009040F2E935B4
:100BA0000748084C0168054E41F08051016000681B
:100BB00000F08050009000987047000004700040E2
:100BC0004038024040000E420E480F4A016841F48E
:100BD000700101600D48016841F0010101600021D0
:100BE000816001681140016009494160016821F498
:100BF000802101600021C1604FF00060054908605C
:100C00007047000088ED00E0FFFFF6FE003802406C
:100C10001030002408ED00E000000000000000009B
:100C2000010203040607080930B5016842688468B8
:100C3000014401EB5203D20748BF4C44994201D111
:100C40000C3030BD11F9012B11F8015B002A04F8BA
:100C5000015B02D5521CF9D1F0E7521EF4D5EDE745
:100C600010B5074979441831064C7C44163404E029
:100C70000A68081D114488470146A142F8D110BDF9
:100C80002C000000380000004EF68851CEF2000122
:100C9000086840F470000860BFF34F8FBFF36F8F98
:100CA0004FF00070E1EE100A704700007DFFFFFF7B
:100CB000D80100001A0000000000002000F00BF82E
:100CC000002801D0FFF7CCFF0020C046C046FFF748
:100CD000C5FE00F002F80120704700F001B80000E6
:100CE0000746384600F002F8FBE7000080B5C04632
:100CF000C046024A11001820ABBEFBE726000200E6
:100D00007047FEE7FEE7FEE7FEE770477047704773
:100D1000FFF7B9BC0148804701480047C90B0008EC
:100D2000250D0008C046C046FFF7AEFFFFF7C6FF1F
:100D3000FFF7FEBFFFF7FEBFFFF7FEBFFFF7FEBFE7
:100D4000FFF7FEBFFFF7FEBFFFF7FEBFFFF7FEBFD7
:100D5000FFF7FEBFFFF7FEBFFFF7FEBFFFF7FEBFC7
:100D6000FFF7FEBFFFF7FEBFFFF7FEBFFFF7FEBFB7
:100D7000FFF7FEBFFFF7FEBFFFF7FEBFFFF7FEBFA7
:100D8000FFF7FEBFFFF7FEBFFFF7FEBFFFF7FEBF97
:100D9000FFF7FEBFFFF7FEBFFFF7FEBFFFF7FEBF87
:100DA000FFF7FEBFFFF7FEBFFFF7FEBFFFF7FEBF77
:100DB000FFF7FEBFFFF7FEBFFFF7FEBFFFF7FEBF67
:100DC000FFF7FEBFFFF7FEBFFFF7FEBFFFF7FEBF57
:100DD000FFF7FEBFFFF7FEBFFFF7FEBFFFF7FEBF47
:100DE000FFF7FEBFFFF7FEBFFFF7FEBFFFF7FEBF37
:100DF000FFF7FEBFFFF7FEBFFFF7FEBFFFF7FEBF27
:100E0000FFF7FEBFFFF7FEBFFFF7FEBFFFF7FEBF16
:100E1000FFF7FEBFFFF7FEBFFFF7FEBFFFF7FEBF06
:100E2000FFF7FEBFFFF7FEBFFFF7FEBFFFF7FEBFF6
:100E3000FFF7FEBFFFF7FEBFFFF7FEBFFFF7FEBFE6
:100E4000FFF7FEBFFFF7FEBFFFF7FEBFFFF7FEBFD6
:100E5000FFF7FEBFFFF7FEBFFFF7FEBFFFF7FEBFC6
:100E6000FFF7FEBFFFF7FEBFFFF7FEBFFFF7FEBFB6
:100E7000FFF7FEBFFFF7FEBFFFF7FEBFFFF7FEBFA6
:100E8000FFF7FEBFFFF7FEBF0001F9000010FC00F6
:050E90000124F4EB0059
:0400000508000D25BD
:00000001FF
