:020000040800F2
:100000000000022009C50208190A00081B0A00089E
:100010001D0A00081F0A0008210A0008000000004D
:10002000000000000000000000000000230A00089B
:10003000250A000800000000270A0008290A000815
:1000400059C5020859C5020859C5020859C5020810
:1000500059C5020859C5020859C5020859C5020800
:1000600059C5020859C5020859C5020859C50208F0
:1000700059C5020859C5020859C5020859C50208E0
:1000800059C5020859C5020859C5020859C50208D0
:1000900059C5020859C5020859C5020859C50208C0
:1000A00059C5020859C5020859C5020859C50208B0
:1000B00059C5020859C50208610A000859C5020855
:1000C00059C5020859C5020859C50208410A000865
:1000D00059C5020859C5020859C5020859C5020880
:1000E00059C5020859C5020859C5020859C5020870
:1000F00059C5020859C5020859C5020859C5020860
:1001000059C5020859C5020859C5020859C502084F
:1001100059C5020859C5020859C5020859C502083F
:10012000310A000859C5020859C50208510A0008D9
:1001300059C50208000000000000000059C502086F
:1001400059C5020859C5020859C5020859C502080F
:1001500059C5020859C5020859C5020859C50208FF
:1001600059C5020859C5020859C5020859C50208EF
:1001700059C5020859C5020859C502080000000007
:100180000000000059C50208000000000000000047
:1001900059C50208000000000000000059C502080F
:1001A00000000000000000000000000059C5020827
:1001B00059C5020859C5020859C5020859C502089F
:0401C00059C5020813
:1002000010B5054C237833B9044B13B10448AFF350
:1002100000800123237010BDD809002000000000D9
:10022000C010030808B5034B1BB103490348AFF3E3
:10023000008008BD00000000DC090020C010030899
:10024000154B002B08BF134B9D46A3F5803A0021A8
:100250008B460F461348144A121A2CF0A9FD0F4B77
:10026000002B00D098470E4B002B00D09847002061
:10027000002104000D000D48002802D00C482EF08B
:100280002DFB2CF0B7F92000290000F071F92CF0BB
:10029000A1F900BF000008000000000000000000FD
:1002A00000000000D809002078170020DDE80208CF
:1002B00005F8020870477047F0B589B00546036835
:1002C000394A934204D0394A934248D009B0F0BD2C
:1002D00000240194364B5A6C42F480525A645B6C91
:1002E00003F480530193019BE023039302230493BF
:1002F0000594032306930523079303A92D481FF0B4
:10030000D3FF2D4E2D4B33604FF0C0677760B46044
:10031000F46034617461B461F461346274623046D3
:100320001EF0C2FEEE64B563254E264B3360776047
:100330004023B360F46034617461B461F461346289
:10034000746230461EF0B0FEAE64B56322462146AC
:10035000232019F025FB232019F054FBB6E70024D5
:100360000294134B1A6C42F480421A641B6C03F41F
:1003700080430293029B082303930227049705946A
:10038000032606960525079503A90F481FF08CFF45
:100390004FF480630393049705940696079503A989
:1003A0000A481FF081FF91E700300140003800400B
:1003B00000380240000002404C130020106402404C
:1003C000AC130020586402400008024000040240C0
:1003D00010B504460368154A934203D0144A934269
:1003E00014D010BD02F58432536C23F4805353644F
:1003F000E021104820F036F8E06C1EF0E9FEA06C19
:100400001EF0E6FE232019F00BFBEAE702F50032AE
:10041000136C23F4804313640821074820F022F86A
:100420004FF48061054820F01DF8DAE70030014004
:100430000038004000000240000802400004024072
:1004400000B583B002680D4B9A4202D003B05DF84C
:1004500004FB0021019103F50C331A6C42F00402F5
:100460001A641B6C03F004030193019B0A461E20CF
:1004700019F096FA1E2019F0C5FAE7E700080040C7
:1004800008B50268064B9A4200D008BD054A136CB5
:1004900023F0040313641E2019F0C2FAF5E700BF2D
:1004A000000800400038024008B5039B1B68282B59
:1004B00001DC002008BD01200AF014FA0AF022FA3B
:1004C000462000F06AFE00200AF00CFA0AF01AFA40
:1004D000462000F062FE01200AF004FA0AF012FA47
:1004E000462000F05AFE00200AF0FCF90AF00AFA51
:1004F000DFE770B586B0054603AB694606A8202243
:1005000003F8012B01F8012B8342F9D1002403AE3B
:1005100006E00C2CEA5CD4BF9A550DF80320013498
:1005200028462BF04DFE2346A042F2D800200AF0C8
:10053000D9F9002102200AF007FB0A4C012394E8B4
:10054000060003A80AF0E6FA122102200AF0FCFADB
:10055000012394E8060068460AF0DCFA0AF0D2F9B2
:1005600006B070BD1000002008B50AF0E9FB08BD18
:100570002DE9F04FADF5457D0024C39417F072FFCF
:100580000D94B04B1A6C42F080521A641B6C03F04D
:1005900080530D930D9B0E94AB4B1A6842F440426E
:1005A0001A601B6803F440430E930E9B02231993B9
:1005B00001221C9210221D921F9320942192C82286
:1005C0002292239307222492259319A814F0C4F8A9
:1005D000002840F0C8810F231493022315930023B1
:1005E00016934FF4805217921893052114A825F002
:1005F000F3FE002840F0B88118F044F90024069476
:10060000904B1A6B42F004021A631A6B02F0040258
:100610000692069A07941A6B42F080021A631A6BCC
:1006200002F080020792079A08941A6B42F00102C6
:100630001A631A6B02F001020892089A09941A6B65
:1006400042F002021A631A6B02F002020992099A3E
:100650000A941A6B42F010021A631A6B02F010022D
:100660000A920A9A0B941A6B42F020021A631A6BD0
:1006700002F020020B920B9A0C941A6B42F040028B
:100680001A631B6B03F040030C930C9B6F4F2246C5
:100690004FF4907138461FF083FF22464FF4A0417B
:1006A0006B481FF07DFF4FF40059CDF86490694B03
:1006B0001A931B94684E19A930461FF0F5FD0C23C0
:1006C00019934FF0020ACDF868A01B944FF003086D
:1006D000CDF8708007231D9319A938461FF0E4FD5B
:1006E0004FF49073199301251A951B941C9419A922
:1006F00038461FF0D9FD4FF4A04319931A951B9467
:100700001C9419A952481FF0CFFD4FF44073199360
:1007100012231A931B95CDF870804FF0040BCDF87F
:1007200074B019A94A481FF0BFFDCDF864901A951E
:100730001B94CDF8708019A930461FF0B5FD2A46EC
:10074000494630461FF02CFFCDF864B01A951B9433
:10075000CDF8708019A930461FF0A6FD19953F4BC2
:100760001A93CDF86CA019A938461FF09DFD4FF4DF
:10077000807319931A941B9419A930461FF094FDA5
:100780003748384B03604FF4827343604FF40043A3
:100790008360C460046144614FF400738361282363
:1007A000C3610462446284620A23C36222F013FBC1
:1007B000002840F0DA8000F023FA002840F0D680CC
:1007C000294800F019FC0AF0BBF8002412941D4BD4
:1007D0001A6B42F480021A631A6B02F480021292BE
:1007E000129A13941A6B42F400121A631B6B03F4EF
:1007F00000131393139B22462146382019F0D0F89A
:10080000382019F0FFF8224621463B2019F0C8F89D
:100810003B2019F0F7F8154D154B2B6040F247338C
:100820006B60AC604FF6FF73EB602C61284610F0F4
:10083000E7FF4FF48053199319A9284610F0FCFCE8
:10084000149417E00038024000700040000002409D
:1008500000040240000021100008024000001110B6
:10086000D010002000380040641100202811002022
:1008700000080040159414A9284626F067FC284675
:1008800010F0BEFF002872D100230F93584A516C1C
:1008900041F480515164516C01F480510F910F99D2
:1008A0001093116B41F480011163116B01F480010D
:1008B000109110991193116B41F001011163126BAA
:1008C00002F001021192119A4A4C4B4A22604FF4F5
:1008D00082726260A360E360236163614FF400721F
:1008E000A2612022E26123626362A362204622F0B9
:1008F00072FA204622F06FFA002839D100F086FC07
:100900003E48FFF7F6FD4FF47A7017F0F3FD0DF552
:10091000B172002322F8023F0133C82BFAD1384CC0
:10092000C82259A9204600F045FB204600F05CFB98
:1009300000231A461946184603F02AFB0546C0B1A3
:100940004FF480742246002119A82CF031FA14AB20
:10095000224619A9284609F08FFD002840D119A880
:10096000FFF7C7FD3FE0FEE7FEE7FEE7FEE7FEE735
:10097000FEE7BEA9C3A800F083FB05460028DFD12F
:10098000BF9BC09D05FB03F528462BF09FFE044648
:1009900050B31C48FFF7ADFD9DF8F8120DF2F72398
:1009A000049300230393029501940093164B4FF098
:1009B000FF32C39802F0C6FE05460028C0D1134896
:1009C000FFF797FD20462BF089FEC39808B101F090
:1009D00087FC03F019FB00200DF5457DBDE8F08F85
:1009E0000B48FFF786FDFEE76FF4C875A8E700BF68
:1009F00000380240F412002000300140843A03081D
:100A000064110020903A0308A9040008A03A0308E2
:100A1000B03A0308FEE700BF7047FEE7FEE7FEE7D7
:100A2000FEE770477047704708B517F035FD08BD01
:100A300008B502481EF068FD08BD00BF4C13002039
:100A400008B5024823F09CFC08BD00BFF41200204A
:100A500008B502481EF058FD08BD00BFAC130020C9
:100A600008B5024810F079FD08BD00BF281100202C
:100A70000E4B984216D803889BB24FF6FF729342F2
:100A800012D102F1006202F5A8224FF6FF71043084
:100A9000904205D803889BB28B42F8D00020704763
:100AA000012070470120704700207047FF3F060873
:100AB00038B505461F4B1B889BB21F4A108880B271
:100AC00010BB4EF6EE629B1A18BF012303F50054CB
:100AD0001834A4030133194800EB8330844227D231
:100AE0002368B3F1FF3F06D00434A0421CD9236829
:100AF000B3F1FF3FF8D18AB200232146012017F05D
:100B000035FF48B180B210E083B94EF6EE639842EB
:100B100014BF00230123D9E7AAB20023A11C01209E
:100B200017F024FF80B200E0802038BDAB20FCE746
:100B30008020FAE70000060800400608FFFF0508CD
:100B400010B586B000230593009307230293012379
:100B50000393022304931148FFF78AFF28B905A9DC
:100B6000684626F0DBFC044638B9002200230B4916
:100B7000012017F0FBFE044610B1204606B010BD60
:100B8000072302930648FFF773FF0028F5D105A954
:100B9000684626F0C3FC0446EFE700BF00000608E5
:100BA0000040060870B4134B1A8892B203F58043D4
:100BB0001B889BB20AB1C3B90122551CAD030E4E6E
:100BC000AB1992030D4C1444AA5B92B2904206D02A
:100BD000043BA3420BD91A8892B28242F8D133F86F
:100BE000023C0B80002070BC7047AB20FBE701206B
:100BF000F9E700BF00000608FEFF0508020006082E
:100C00002DE9F04786B0002305939F4A1788BFB2AD
:100C100002F58042B2F800A01FFA8AFA0093072377
:100C2000029301230393022304934EF6EE639F4243
:100C300048D04FF6FF739F420DD0002F00F0AB80DD
:100C4000FFF77EFF002800F01C811FFA80FA504653
:100C500006B0BDE8F087BAF1000F0BD04EF6EE6398
:100C60009A4517D0FFF76CFF002800F0FF801FFAAD
:100C700080FAECE78448FFF7FBFE04460028E6D143
:100C800005A9684626F04AFC002800F0EA801FFA11
:100C900080FADCE77C48FFF7EBFE20B905A968463F
:100CA00026F03CFC58B9002200237849012017F0B7
:100CB0005DFE002800F0D7801FFA80FAC7E71FFA10
:100CC00080FAC4E7BAF1000F42D1714D00244FF011
:100CD000FF36704FDFF8C08102E00134C82C17D016
:100CE0003B889BB235F8020B834208BF26B2B44260
:100CF000F3D04146FFF756FF0128EED0B8F80010B8
:100D000035F8020CFFF7D4FE0028E6D082469EE7B5
:100D1000002200235C49012017F028FE10B11FFAC1
:100D200080FA94E707230293012303930223049399
:100D30005648FFF79DFE0446002888D105A968465D
:100D400026F0ECFB002800F094801FFA80FA7EE782
:100D50004FF6FF739A4507D0FFF7F2FE002800F028
:100D60008D801FFA80FA72E74848FFF781FE20B9AC
:100D700005A9684626F0D2FB50B90022002342495B
:100D8000012017F0F3FD002875D01FFA80FA5EE706
:100D90001FFA80FA5BE7BAF1000F0CD04FF6FF7331
:100DA0009A4510D03A4D00244FF0FF36DFF8EC8022
:100DB000DFF8E4901BE0FFF7C3FE00283FF447AFE5
:100DC0001FFA80FA43E73148FFF752FE824608B126
:100DD000BA463CE705A9684626F0A0FB00283FF488
:100DE00036AF1FFA80FA32E70134C82C18D0B8F8B1
:100DF00000309BB235F8020B834208BF26B2B442E2
:100E0000F2D04946FFF7CEFE0128EDD0B9F8001028
:100E100035F8020CFFF74CFE82460028E4D016E7B6
:100E2000002200231949012017F0A0FD10B11FFA7C
:100E300080FA0CE707230293012303930223049310
:100E40001148FFF715FE824608B1BA46FFE605A92C
:100E5000684626F063FB00283FF4F9AE1FFA80FADB
:100E6000F5E6A246F3E64FF0000AF0E64FF0000A7E
:100E7000EDE6A246EBE64FF0000AE8E64FF0000A86
:100E8000E5E64FF0000AE2E600000608004006082A
:100E90000C14002006000608F4090020064006088D
:100EA0002DE9F04186B005460C46FFF701FE0346EA
:100EB000802803D0184606B0BDE8F08100230093D7
:100EC000294B1B889BB2294A128892B21BB1002A77
:100ED00048D1254F00E0254F4EF6EE6200233946FB
:100EE000012017F043FD08B183B2E3E7214628460D
:100EF000FFF7DEFD03460028DCD11D4C04F5C87663
:100F0000DFF8708001E0B44212D034F8020B854261
:100F1000F9D04146FFF746FE0128F4D0B8F800109A
:100F200034F8020CFFF7C4FD03460028EBD0C1E7FC
:100F300000230193072303930123049302230593C2
:100F4000694601A826F0EAFA08B183B2B2E70022A6
:100F500000233946012017F009FD08B90023A9E74D
:100F600083B2A7E7AB23A5E7000006080040060808
:100F70000C140020F4090020F0B583B0A8B102AE33
:100F8000002326F8023D0A4C851E04F5C877314639
:100F900034F8020FFFF706FEBDF8063025F8023FD1
:100FA000BC42F4D1002003B0F0BD0220FBE700BF3B
:100FB0000A14002070B578B181B18AB1094C8D1E38
:100FC00004EB420635F8021F34F8020BFFF768FF06
:100FD000B442F7D1002070BD0220FCE70220FAE7FE
:100FE0000020F8E70C14002008B518B1FFF7C4FF83
:100FF000002008BD0220FCE738B50546C8B10E4BFD
:101000000E4903F5C8740122002023F8022F21F8AD
:10101000020F0132A342F8D1AB1E05F5C7710022C1
:1010200023F8022F8B42FBD12846FFF7DDFF00207B
:1010300038BD0220FCE700BF0A1400209A150020EA
:1010400010B50C4621B117F033FA2060002010BD16
:101050006FF0C800FBE710B50C4659B14FF4807132
:1010600006481FF097FA01280CBF022301232370C2
:10107000002010BD6FF0C800FBE700BF0008024071
:1010800070B598B005460E46002109910191029174
:1010900003911D4B07931D4B06931D4B04931D4B52
:1010A00008931D4B059309AA01A801F0ADFA044667
:1010B00030B1099808B101F013F9204618B070BD9D
:1010C00014A9099801F020FC04460028F1D10CABCA
:1010D00019220DA9099801F045FD04460028E8D120
:1010E0000AAB02220BA9099802F038F8044600283E
:1010F000DFD132469DF82C10099802F019F9044608
:10110000099B2B60D9E700BF571000086112000847
:10111000011200086111000841100008F0B583B009
:1011200005460E4617460C4C00224FF4005120464F
:101130001FF036FA322300933B46324629460748D1
:1011400021F091FF054601224FF4005120461FF087
:1011500027FA284603B0F0BD00080240F412002030
:1011600008B5084659B16BB1BDF808201946FFF71C
:10117000D5FF002814BF6FF06300002008BD6FF09A
:10118000C800FBE76FF0C800F8E708B54FF47A73C2
:1011900003FB00F017F0AEF908BD38B50446EFF3D5
:1011A00005835BB10A4A8CB1136813F4803F03D105
:1011B000136813F4803FFBD0013CF4E717F078F993
:1011C000054617F075F9401BA042FAD338BD00BFA1
:1011D00010E000E038B50446074B5D6825F0ACF937
:1011E000064BA3FB0030800C04FB00F4024A53685A
:1011F0005B1BA342FBD338BD001000E083DE1B4322
:1012000008B50846FFF7E6FF002008BD0D4BDA6879
:1012100022F08072DA60DA6842F08072DA600A4B9B
:101220001A6822F001021A601A6842F001021A607C
:1012300000225A6000BF00BF00BF5868B0FA80F0BB
:1012400040097047F0ED00E0001000E008B50246EC
:10125000042102481FF0A4F908BD00BF00080240A5
:1012600008B5084639B1022914BF00200120FFF754
:10127000EDFF002008BD6FF0C700FBE708B50122B5
:10128000042102481FF08CF908BD00BF000802408D
:1012900008B50022042102481FF082F908BD00BFF2
:1012A0000008024008B54FF4807102481FF072F93F
:1012B00008BD00BF0008024008B517F0F9F808BDE6
:1012C00008B517F0F5F808BD0346064A126822B1C2
:1012D000044A1068034413607047024A02491160CF
:1012E000F6E700BFF8090020781700204FF0FF3024
:1012F00070474FF0FF3070474FF400534B600020B1
:101300007047012070470020704710467047104614
:101310007047FEE7F0B585B0D8B10D4617461E46BA
:101320000446A1B1AEB103A9204608F03DF860B96A
:10133000039B5A1C974216D32DB12146284606F02E
:1013400013FB10B9039B3360002005B0F0BD002AE9
:10135000E8D0002300931A4619466FF0C80009F040
:1013600087F805B0F0BD00900346024601466FF0D5
:10137000CB0009F07DF805B0F0BD00BF012838D0E2
:1013800000B5312883B036D00ED934285ED01CD8B1
:10139000322842D0332849D1002300931A461946F7
:1013A0002F4809F065F80DE011282CD017D9122824
:1013B00044D030283AD1002300931A4619462948D0
:1013C00009F056F803B05DF804FB352823D100235B
:1013D00000931A461946244809F04AF8F2E7102803
:1013E00024D1002300931A461946204809F040F8FA
:1013F000E8E700207047002300931A4619461C486E
:1014000009F036F8DEE7002300931A46194619481A
:1014100009F02EF8D6E7B02808D1002300931A4629
:1014200019466FF4317009F023F8CBE700230093DD
:101430001A461946104809F01BF8C3E70023009329
:101440001A4619460D4809F013F8BBE7002300932C
:101450001A4619466FF4327009F00AF8B2E700BF75
:1014600041FDFFFF34FDFFFF36FDFFFF38FDFFFFAD
:1014700035FDFFFF39FDFFFF3CFDFFFF3AFDFFFF9C
:1014800070B5224C84B02468039400240294BDF803
:1014900020608DF8081004468DF809208DF80A3078
:1014A00040B3042240680092E56903AB02A9A84753
:1014B000054678B99DF80C30CC2B12D19DF80D3033
:1014C000CC2B0ED19DF80E30CC2B0AD19DF80F30CD
:1014D000CC2B06D13146E36860689847284604B0B3
:1014E00070BD002300931A461946094808F0C0FF52
:1014F0000546EFE700900346024601466FF0C8003C
:1015000008F0B6FF0546284604B070BDA0110308D8
:101510003DFDFFFF2DE9F047C4B0C024B0258DF894
:101520000F408DF80E500446002878D00F4616461E
:101530009846002953D0B2F5807F46D8002B51D071
:1015400052B1511E89B204A80131014403461A1A4E
:1015500003F8012B8B42FAD14FF0010A6068CDF8F5
:1015600000A0E56952460DF10E030DF10F01A847E9
:10157000054608BB9DF80E30B02B3DD14FF47A796B
:101580000DE06068CDF800A0E569A847054698B968
:101590009DF80E30B02B2FD1B9F101093BD0E36893
:1015A00060684FF47A7198470DF10E0305460122E9
:1015B0000DF10F010028E4D0E36860684FF47A7100
:1015C0009847284644B0BDE8F087002300931A46A8
:1015D00019466FF0C90008F04BFF0546ECE70AB961
:1015E000002BB9D1002300931A4619466FF0C800AA
:1015F00008F03EFF0546DFE7012B0CD15EB16068C5
:101600000096E5693B46324604A9A84705460028EE
:10161000D2D19DF80E3088F800300025CCE700903C
:101620000346024601466FF0C80008F021FF054658
:10163000C7E700BF18B1084B43620020704700B5F0
:1016400083B003460090024601466FF0C80008F0E0
:101650000FFF03B05DF804FBE91A000800B583B082
:10166000B8B190F9C02042B9012380F8C12080F8B8
:10167000C030104603B05DF804FB00231A46009307
:101680001946094808F0F4FE0246104603B05DF81A
:1016900004FB02460090034601466FF0C80008F0C4
:1016A000E7FE0246E5E700BFA5FDFFFF48B141B1F7
:1016B0003BB1D0F8C8109142BCBF01221A70002083
:1016C000704700B583B0002300931A4619466FF0A7
:1016D000C80008F0CDFE03B05DF804FB2DE9F04F23
:1016E000C7B00B460292002900F0B9804C89B3F8CC
:1016F000069009899A8893F802A0641AA9EB020956
:101700008046A4B21FFA89F9002800F09E80029B4F
:10171000002B00F09A80002C70D0DFF85CB100251F
:1017200098F8A230692B6BD0002D00F0A080611ECC
:101730008D42B4BF0021012105AEDBF800303360DB
:1017400004220023D8F8240000920493D8F83C70B7
:101750008DF8111033468DF810A08DF8125004A9A1
:10176000B84710BB3378CC2B5AD17378CC2B57D1D8
:10177000B378CC2B54D1F378CC2B51D1D8F82C3072
:10178000D8F824004FF4FA71984708F1200738463A
:10179000334606A901274A463770FFF7BBFE0346CA
:1017A00080B1184647B0BDE8F08F0290D8F82C20E1
:1017B000D8F824004FF4FA719047029B184647B0BE
:1017C000BDE8F08F3078FFF7D9FD03460028E8D157
:1017D000B9F1000F0ED006AB09F1FF3013FA80F01B
:1017E000029B0DF117022B4412F8011F1970904251
:1017F0002344F9D10135ABB29C4291D80023D0E704
:1018000000234FF4FA7208F12007009238461A4676
:101810005146FFF735FE03460028C2D105AEB6E7B4
:1018200000231A4619460093124808F021FED8F802
:101830002C2003904FF4FA71D8F824009047039BB2
:10184000002BAED108F12007A1E7002300931A4630
:1018500019466FF0C80008F00BFE0346A1E700919F
:101860000A466FF0C80008F003FE034699E780219E
:1018700062E700BF3DFDFFFFA0110308F0B59FB078
:10188000E8B1259CDCB1269CCCB190F8A240692C33
:10189000154610D0002500F120044FF47A760A4650
:1018A00020462B46009612218DF81350FFF7E8FDD5
:1018B00078B11FB0F0BD15B10BB1249A0ABB00235B
:1018C00000931A4619466FF0C80008F0D1FD1FB00A
:1018D000F0BD1EAB012203F8642D20460DF113016B
:1018E000FFF718FE0028E4D19DF81400FFF746FD2D
:1018F0000028DED1269A9DF813301360259B1860CE
:10190000D7E71A4629460393FFF7E8FE039B002812
:10191000CFD1AA886E892989B5F806E0761AAEEB90
:10192000020EB6B21FFA8EFE249A0EFB06F7BA42DA
:1019300036D3BEF1000F3ED006F1FF3C1FFA8CFCFF
:1019400000250CF1010C2C465EB10CEB030019468E
:1019500011F8012BC72A8CBF2246621C884294B220
:10196000F6D10135AAB296453344EDD864231A4620
:10197000174905A803FB04F3B3FBF7F72AF00AFAAB
:101980007B1EDBB2632B16D81EAB53FA87F717F812
:10199000643C259901220A60269A0020136088E79A
:1019A00000900346024601466FF0C90008F060FD52
:1019B00000287FF47EAF002300931A4619466FF08B
:1019C000C90008F055FD00287FF473AF0346E0E737
:1019D000A411030830B585B0E0B10D46D1B104467D
:1019E00090F9400010B9087005B030BDA36B606A73
:1019F0000DF10F0198470028F6D19DF80F3093B1F3
:101A0000226ACAB1022B14BF0123022300202B70CB
:101A100005B030BD002300931A4619466FF0C80088
:101A200008F026FDE0E700900346024601466FF00D
:101A3000C70008F01DFDD7E7012B14BF01230223C7
:101A4000E4E700BF30B5044683B000283CD0244D05
:101A50002B6823B3A2699A420AD0002300931A4646
:101A60001946204808F004FD0346184603B030BD6F
:101A700063699B69002BF0D02046984703460028F5
:101A8000F3D104F11C0106F08FFE03460028ECD1CF
:101A900004F1100103B0BDE8304006F085BE2846D1
:101AA00006F066FE03460028DFD12B68002BD1D15B
:101AB00000931A4619460B4808F0DAFC0346002842
:101AC000D3D14FF0FF33C5E70090034602460146ED
:101AD0006FF0C80008F0CCFC0346184603B030BDD8
:101AE000FC0900206EFEFFFF30B5044683B00028DD
:101AF00035D0204D2B685BB1A2699A421CD00023DF
:101B000000931A4619461C4808F0B2FC03B030BDD9
:101B1000284606F02DFE0028F8D12B68002BEBD1CB
:101B200000931A461946A0F5C97008F0A1FC0028D8
:101B3000ECD14FF0FF33DFE7636B606A0121984718
:101B40000028E3D1A36A1BB1606A98470028DDD161
:101B500063695B6A204603B0BDE8304018470090D7
:101B60000346024601466FF0C80008F081FC03B04E
:101B700030BD00BFFC0900206EFEFFFF70B50446BB
:101B800084B0002875D090F9403043B90023009309
:101B90001A461946484808F06BFC04B070BD836BC8
:101BA000406A03A998470028F7D19DF80C30002B14
:101BB00054D0226A002A4ED0022BE7D14FF47A7219
:101BC00004F120050023009228461A46F621FFF76B
:101BD00057FC0028E1D104F1A306284631460DF157
:101BE0000B030F22FFF796FC0028D6D19DF80B00BF
:101BF000302849D0FFF7C2FB0028CED12F4930460C
:101C00002AF072F900284DD02D4930462AF06CF99F
:101C1000002849D02B4930462AF066F9002845D0E3
:101C2000294930462AF060F9002841D0274930463A
:101C30002AF05AF900283DD0304625492AF054F9B7
:101C400000280CBF69220022012384F8A22084F816
:101C5000A1300020A1E7012B98D1AFE70090034607
:101C6000024601466FF0C70008F002FC002894D13C
:101C70008CE700900346024601466FF0C80008F06A
:101C8000F7FB002889D181E703A90C4807F08CFBFA
:101C9000002882D13046039A084905F065FE0028E5
:101CA0007FF47BAF6422CFE76522CDE76622CBE7E6
:101CB0006722C9E76822C7E742FDFFFFCC3A030865
:101CC000D83A0308E43A0308F03A0308FC3A030858
:101CD000083B0308F0B5044685B0002800F0918069
:101CE00090F9403043B9002300931A4619464F48F3
:101CF00008F0BEFB05B0F0BD836B406A03A99847AE
:101D00000028F7D19DF80C30002B6ED0226A0AB360
:101D1000022BE8D100254FF47A7204F120062B46FD
:101D2000009230462A46F7218DF80C508DF80D5060
:101D3000FFF7A6FB054640B394F9A130002B6CD009
:101D400094F8A230643B052B6ED8DFE803F018143A
:101D500018141006012BC6D1DCE7012384F8B63035
:101D600084F8BB30012384F8B2300020C2E701239D
:101D700084F8B430F6E7012384F8B630F2E70123A3
:101D800084F8B33084F8B530ECE704AB012703F8EE
:101D9000057D03A930460222FFF7BCFB054600285B
:101DA000CAD19DF80B00FFF7E9FA05460028C3D118
:101DB0009DF80C30DA0701D584F8B3709E0744BF54
:101DC000012284F8B6205D0744BF012384F8B430B3
:101DD0009DF80D30D80744BF012284F8B520D906FC
:101DE000C0D5012384F8BB30BCE70090034602460F
:101DF00001466FF0C70008F03BFB00287FF47AAF84
:101E000071E700900346024601466FF0C80008F0F3
:101E10002FFB00287FF46EAF65E72046FFF7AEFE8C
:101E200000287FF467AF8BE7284663E742FDFFFF9A
:101E30002DE9F043ADF5344D87B0002800F0BA80AD
:101E40009146002A00F0B68090F8A230692B0F4628
:101E500005465FD000244FF47A780A462346CDF831
:101E60000080122120308DF81240FFF709FB064652
:101E700028B130460DF5344D07B0BDE8F08301249C
:101E8000686A0094B023C0278DF818608DF813306D
:101E9000EE6B8DF8147022460DF1130305A9B047BF
:101EA000064660BB9DF81360B02E40F08D80EB6A53
:101EB000686A4FF47A7198470DF1130306460122C0
:101EC00005A9E0B9686A0094EE6BB0470646B0B960
:101ED0009DF81360B02E77D1B8F10108E7D1EB6A15
:101EE000686A4FF47A7198473046FFF747FA06461A
:101EF0000028BED19DF81230C9F80030B9E7EB6A6E
:101F0000686A4FF47A71984730460DF5344D07B042
:101F1000BDE8F08390F9B230002B44D095F9B3308E
:101F2000002B61D195F9B430002B40F0818095F9F8
:101F3000B530002B7ED195F9B630002B40F086806D
:101F400095F9B730002B7FD195F9B830002B79D1B6
:101F500095F9B930002B73D195F9BA30002B6DD1BA
:101F600095F9BB30002B67D195F9BC30002B71D1AE
:101F7000002300931A4619466FF0C90008F078FA5A
:101F8000064600287FF475AF374ACDF8089005ABB8
:101F90004FF4344401933946284606AB0094FFF7CA
:101FA0006DFC064665E7FFF795FE064600287FF4C0
:101FB00060AFB3E7002300931A4619466FF0C800DC
:101FC00008F056FA064654E7012E88D1686A009652
:101FD0003246EC6B0DF1120306A9A0470646002815
:101FE0008DD19DF813607AE7002395F8A21003F0D5
:101FF000FF02002BC8D0012A2AD0022A30D069293A
:1020000012D049BB032A29D0082A2BD000230093E1
:102010001A4619466FF4167008F02AFA0646002888
:102020007FF427AF0246B0E7032AEDD10F4AACE7B1
:102030000123DAE70223D8E70823D6E70723D4E70A
:102040000623D2E70523D0E70423CEE70323CCE71A
:10205000074A9AE70923C8E7032AD5D1054A94E736
:10206000054A92E7054A90E7081203082C12030874
:10207000141203083812030820120308441203083C
:102080002DE9F04188B04FF0FF3600230696079304
:10209000054600283BD00121374807F08BFF044656
:1020A00060B1079B33B193F90C301BB107A9002035
:1020B00006F07AFB204608B0BDE8F081284606F01D
:1020C000D1FB04460028ECD1DFF8C080D8F80070BE
:1020D0003FB306A805F01AFF04460028E1D107A97E
:1020E000384606F029F904460028DAD1079870B37B
:1020F000AF6105F11C0106F057FB04460028D0D162
:1021000005F11001079806F04FFB0446C9E700905F
:102110000346024601466FF0C80008F0A9F90446DC
:10212000BFE7404606F024FB04460028B9D1D8F8A2
:102130000070002FCDD100973B463A4639460F48F4
:1021400008F096F904460028ABD13746C1E738239A
:102150000B4C0C490C4A049007AE02940191059671
:10216000039300926A690699384606F0F3F904462B
:10217000002896D10798BBE7794000086EFEFFFF64
:10218000000A0020451A000835160008FC09002046
:1021900030B5044683B0B8B1104D2A681AB1226038
:1021A000002003B030BD284606F0E2FA0028F8D13E
:1021B0002A68002AF3D10090034602460146A0F5A2
:1021C000C97008F055F9ECE7009003460246014655
:1021D0006FF0C80008F04CF9E3E700BFFC090020ED
:1021E00030B585B0044603A8154601F0EFFE58B996
:1021F000039B5BB1002300931A4619468CB185B14D
:102200006FF4167008F034F905B030BD0090034645
:1022100002460649A0F25B2008F02AF90028E9D01E
:10222000F2E76FF0C80008F023F9EDE7143B03086C
:1022300010B584B0044603A801F0C8FE60B9039B42
:1022400063B1B4B1069BA3B1002300931A461946AB
:102250006FF4167008F00CF904B010BD009003463E
:1022600002460849A0F25B2008F002F90028E8D0F5
:10227000F2E7002300931A4619466FF0C80008F0F1
:10228000F7F8E9E7143B030810B584B0044603A847
:1022900001F09CFE60B9039B63B1B4B1079BA3B18D
:1022A000002300931A4619466FF4167008F0E0F800
:1022B00004B010BD0090034602460849A0F25B201E
:1022C00008F0D6F80028E8D0F2E7002300931A4679
:1022D00019466FF0C80008F0CBF8E9E7143B030893
:1022E00000B583B0019018B101A9002006F068FD87
:1022F00003B05DF804FB00BF70B5044684B000284D
:1023000078D0594D2B685BB1A2699A421CD000234A
:1023100000931A461946554808F0AAF804B070BD53
:10232000284606F025FA0028F8D12B68002BEBD1BF
:1023300000931A461946A0F5C97008F099F80028CC
:10234000ECD14FF0FF33DFE7002184F840107C220E
:1023500004F1440005F034FB0028DFD1636B606AB0
:10236000012198470028D9D1E36A606A44F62061C8
:1023700098470028D2D1636B606A022198470028F1
:10238000CCD1E36A3A49606A98470028C6D10DF17A
:102390000F01A36B606A98470028BFD19DF80F30EA
:1023A000002B55D0226A002A4FD0022B34D0304E59
:1023B0000525A36B606A0DF10F0198470028ADD188
:1023C0009DF80F30002B35D0226AEAB1022B1DD0C8
:1023D000E36A606A314698476B1E00289ED113F06D
:1023E000FF05E6D10090034602460146214808F069
:1023F0003FF893E700900346024601466FF0C8009D
:1024000008F036F804B070BD012BE1D1E36A184939
:10241000606A9847002881D1E36A1749606A984743
:1024200000287FF47BAF012384F8403020462AF057
:1024300025F873E700900346024601466FF0C70097
:1024400008F016F80028C3D068E7012BAFD1E3E706
:1024500000900346024601466FF0C70008F008F8F6
:102460000028A4D05AE700BFFC0900206EFEFFFF41
:10247000A086010042FDFFFFA0F70300F0B585B084
:102480000023054603A80E461746029301F09EFD61
:102490000446002839D1039B002B40D0002D55D095
:1024A0006B6813B1AB68002B5AD0EB68002B57D088
:1024B0006B69002B54D0AB69002B51D0EB69002B1A
:1024C0004ED02B69002B4BD0002E68D0CF2F33D9A4
:1024D0000B9B002B3AD0304602AB464AD02105F088
:1024E000D9FE044688B9029E002E2FD0424F3B6889
:1024F000002B3FD0B2699A425BD0002300931A466A
:1025000019463E4807F0B4FF0446029B03931BB1F3
:1025100003A9002006F054FC204605B0F0BD009051
:10252000034602463649374807F0A2FF0446002812
:10253000EBD1002DB4D109E0002300931A461946CF
:102540006FF0CB0007F094FF0446DEE70023009312
:102550001A4619466FF0C80007F08AFF0446D4E710
:10256000002300931A4619466FF0C70007F080FF5A
:102570000446CAE7384606F0FBF804460028C4D1F2
:102580003B68002BB6D100931A4619461B4807F04A
:102590006FFF04460028B8D14FF0FF33AAE7002FA1
:1025A000D4D10A9B002BD1D01A46D0233C461360CD
:1025B000ABE720222946B01805F0D6F904460028DA
:1025C000A3D13046FFF798FE044600289DD146234C
:1025D000C6F8C8300A9B28210122C6F8C41086F824
:1025E000CC2013B11A46D02313600B9A029B1360C0
:1025F000002491E781200008FC0900206EFEFFFF07
:10260000143B0308A5FDFFFF2DE9F04184B0002332
:10261000054603A81646029301F0D8FC044608BB01
:10262000039B002B29D0002D49D06B6813B1AB68F8
:10263000002B4ED0EB68002B4BD06B69002B48D0A1
:10264000AB69002B45D0EB69002B42D02B69002BE6
:102650003FD0002E33D002AA3C49D02005F0B8FD6F
:102660000446B8B1029B03931BB103A9002006F0F6
:10267000A7FB204604B0BDE8F08100900346024667
:102680003349344807F0F4FE04460028EAD1002D0F
:10269000CBD114E0029F002F55D0DFF8C080D8F8CE
:1026A0000030002B39D0BA699A421CD00023009325
:1026B0001A461946284807F0DBFE0446D2E70023F5
:1026C00000931A4619466FF0C80007F0D1FE044681
:1026D000C8E7002300931A4619466FF0C70007F0B9
:1026E000C7FE0446BEE720222946B81805F03CF98B
:1026F00004460028B6D13846FFF7FEFD0446002800
:10270000B0D1282001214622029BC7F8C40087F8D7
:10271000CC10C7F8C8203360ABE7404606F028F875
:10272000044600289ED1D8F80030002BBBD100937E
:102730001A461946084807F09BFE0446002891D126
:102740004FF0FF33AFE700900346BAE7812000085F
:10275000143B0308A5FDFFFF6EFEFFFFFC090020F0
:1027600070B5044682B050B31A4D2B680E465BB16B
:10277000A2699A421CD0002300931A4619461648B3
:1027800007F076FE02B070BD284605F0F1FF002884
:10279000F8D12B68002BEBD100931A461946A0F50F
:1027A000C97007F065FE0028ECD14FF0FF33DFE77A
:1027B0003146204602B0BDE87040FFF70BB90090EB
:1027C0000346024601466FF0C80007F051FE02B012
:1027D00070BD00BFFC0900206EFEFFFF70B504460F
:1027E00082B0002833D0234D2B680E46ABB1A269CE
:1027F0009A4208D0002300931A4619461E4807F053
:1028000037FE02B070BD66B394F9A130CBB194F835
:10281000A2303370002002B070BD284605F0A8FF3A
:102820000028EED12B68002BE1D100931A461946FF
:10283000A0F5C97007F01CFE0028E2D14FF0FF336D
:10284000D5E72046FFF79AF90028DAD1DFE70090B4
:102850000346024601466FF0C80007F009FE02B0C9
:1028600070BD00963346324631466FF0C80007F01F
:10287000FFFDC6E7FC0900206EFEFFFF70B50446B1
:1028800082B048B31E4D2B680E468BB1A2699A42A6
:1028900008D0002300931A4619461A4807F0E8FDAD
:1028A00002B070BD16B302230020337002B070BDB9
:1028B000284605F05DFF0028F2D12B68002BE5D1FA
:1028C00000931A461946A0F5C97007F0D1FD0028FB
:1028D000E6D14FF0FF33D9E70090034602460146A8
:1028E0006FF0C80007F0C4FD02B070BD009633461B
:1028F000324631466FF0C80007F0BAFDD0E700BF9E
:10290000FC0900206EFEFFFFF0B5044685B00028EC
:102910004FD0464D2B680E46D3B1A2699A420AD0D9
:10292000002300931A461946414807F0A1FD0346CB
:10293000184605B0F0BD002E47D094F95130E3B1F0
:1029400004F154013046102205F00EF80346EFE77B
:10295000284605F00DFF03460028E9D12B68002B1F
:10296000DBD100931A461946314807F081FD034632
:102970000028DDD14FF0FF33CFE70DF10A012046EB
:102980008DF80A30ADF80C308DF80E30FFF722F8D4
:1029900003460028CCD19DF80A20022A18D00090C6
:1029A00002460146234807F063FD03460028BFD1D5
:1029B000C6E7009003461A4619466FF0C80007F0B4
:1029C00057FD0346184605B0F0BD00963346F2E7C2
:1029D0004FF47A7204F12005009228461A46F52138
:1029E000FEF74EFD03460028A2D104AB012703F8F1
:1029F000057D03A928460322FEF78CFD0346002827
:102A000096D19DF80B00FEF7B9FC034600288FD144
:102A10009DF80C009DF80D109DF80E20236684F89B
:102A200051706065A165E2658AE700BFFC0900207E
:102A30006EFEFFFF42FDFFFF2DE9F041044682B02C
:102A400078B31D4D98462B680E46174663B1A269B0
:102A500093421DD0002300931A461946174807F0E9
:102A600007FD02B0BDE8F081284605F081FE002890
:102A7000F7D12B68002BEAD100931A461946A0F52E
:102A8000C97007F0F5FC0028EBD14FF0FF33DEE70B
:102A90000B4843463A46314602B0BDE8F041FEF7E6
:102AA00039BC00900346024601466FF0C80007F0AB
:102AB000DFFC02B0BDE8F081FC0900206EFEFFFFE4
:102AC000243C03082DE9F041044682B0002839D0A7
:102AD000224D98462B680E461746CBB1A269934209
:102AE00009D0002300931A4619461D4807F0C0FC80
:102AF00002B0BDE8F08194F9A130EBB143463A460B
:102B0000314604F1A30002B0BDE8F041FEF702BC7B
:102B1000284605F02DFE0028EAD12B68002BDDD1D8
:102B200000931A461946A0F5C97007F0A1FC0028C9
:102B3000DED14FF0FF33D1E72046FFF71FF8002822
:102B4000D6D1DBE700900346024601466FF0C8008D
:102B500007F08EFC02B0BDE8F08100BFFC09002048
:102B60006EFEFFFF2DE9F04FCBB0002403940494D8
:102B700005940694079408948DF824400446002890
:102B800045D0784F99463B680E46904673B1A2698E
:102B90009A4220D0002300931A461946724807F043
:102BA00067FC054628464BB0BDE8F08F384605F077
:102BB000DFFD05460028F5D13B68002BE7D10093E7
:102BC0001A461946684807F053FC05460028E9D123
:102BD0004FF0FF33DBE794F944302BB304F14407A3
:102BE00004F1500A614C03AD17F8013F2846224614
:102BF00003212AF03DFB574505F10205F4D14B4670
:102C00004246314603A8FEF785FB0546CAE7009019
:102C10000346024601466FF0C80007F029FC05464E
:102C200028464BB0BDE8F08F0DF1090120468DF824
:102C30000930FEF7CFFE05460028B3D19DF809A064
:102C4000BAF1020F0AD000900346024601464848F6
:102C500007F00EFC05460028A4D1BFE720214FF461
:102C60007A7B03460246CDF800B06018FEF708FCF8
:102C70000546002896D103220423052101278DF85B
:102C800028508DF82B20062507228DF82C308DF842
:102C90002D1008230921606A8DF82E5000970A250F
:102CA0008DF82F208DF830300B22B0238DF83110A5
:102CB000C0218DF832508DF833208DF80A308DF810
:102CC0000B100DEB05038DF82970E56B8DF82AA02C
:102CD0003A460DF10B01A8470546F0B99DF80A30B8
:102CE000B02B0DD01FE0606A0097E56BA847054642
:102CF00098B99DF80A30B02B15D1BBF1010B1FD04C
:102D0000E36A606A4FF47A7198470DF10A03054649
:102D100001220DF10B010028E5D0E36A606A4FF44F
:102D20007A7198473EE7012B0AD10C220092E56B9D
:102D3000606A0AA904F14503A84705460028ECD1BA
:102D40009DF80A50E36A606A4FF47A719847284602
:102D5000FEF714FB054600287FF424AF012384F816
:102D600044303BE7FC0900206EFEFFFF243B0308D4
:102D700042FDFFFF2DE9F047044684B0002800F033
:102D80008180634D98462B680E46174663B1A26951
:102D90009A421DD0002300931A4619465D4807F059
:102DA00067FB04B0BDE8F087284605F0E1FC002889
:102DB000F7D12B68002BEAD100931A461946A0F5EB
:102DC000C97007F055FB0028EBD14FF0FF33DEE769
:102DD0002B68002B61D09A4269D0002300931A46D9
:102DE00019464C4807F044FB0028DAD1DDF808907A
:102DF000002202AB11462046FFF764FE0028D0D126
:102E00000246014602AB2046029DFFF7ABFE0028BA
:102E1000C7D1029B2B444B44DD1C7EB30433BB4221
:102E200061D802AB2A4631462046FFF705FE00284E
:102E3000B7D1029B4FF02F095F1C06F80390EA1BE5
:102E4000F11902AB2046FFF73DFE0028A9D1029BF5
:102E50001F4407F1010A02AB204606F80790A5EBD4
:102E60000A0206EB0A01FFF77DFE002899D1029BBA
:102E70009A440AF1010506F80A907055C8F8005006
:102E800000208EE700900346024601466FF0C8001E
:102E900007F0EEFA04B0BDE8F0871D4805F068FCC5
:102EA00000287FF47EAF2B6883B1A26993E703A962
:102EB000194806F079FA00287FF473AFDDF80C901A
:102EC000B9F1FF3F18D1CDF8089091E700931A4669
:102ED0001946104807F0CCFA00287FF462AFA269C7
:102EE0004FF0FF3377E700900346024601466FF04C
:102EF000CB0007F0BDFA54E70090034602460146B6
:102F00006FF0CB0007F0B4FA00287FF44AAF6DE70A
:102F1000FC0900206EFEFFFF243C03082DE9F0436E
:102F2000044685B000287AD0594D98462B680E4645
:102F30001746002B59D0A2699A4209D0002300936A
:102F40001A461946534807F093FA05B0BDE8F083D6
:102F500094F9A130002B5CD094F8A230692B6CD08E
:102F600094F96430002B65D194F9A130002B6BD01B
:102F700004A9002301F8013D2046FEF72BFD00289F
:102F8000E3D19DF80F30022B04F1650563D194F86D
:102F9000A230692B69D04FF47A7304F120090093B1
:102FA0004846012390222321FEF76AFA0028CCD15B
:102FB00048460DF10E033C222946FEF7ABFA0028E5
:102FC000C3D19DF80E0061285AD0302858D0FEF7A2
:102FD000D5F90028B9D1012384F8643043463A4634
:102FE00031462846FEF796F9AFE7284605F0C0FBC4
:102FF0000028AAD12B68002B9DD100931A461946B0
:10300000A0F5C97007F034FA00289ED14FF0FF33C5
:1030100091E72046FEF7B2FD002896D19CE700908C
:103020000346024601466FF0C80007F021FA05B0DA
:10303000BDE8F08304F16505D0E743463A463146E2
:103040001548FEF767F980E72046FEF797FD002850
:103050007FF47BAF8CE700900346024601460F48A1
:1030600007F006FA0028B6D06FE700900346024644
:1030700001466FF4167007F0FBF90028ABD064E747
:103080003C21284604F0B0FC00287FF45EAFA2E7A4
:10309000FC0900206EFEFFFF083C030842FDFFFF15
:1030A000F0B5044683B0002838D02A4D2B680E4670
:1030B0001746CBB1A2699A4208D0002300931A4662
:1030C0001946254807F0D4F903B0F0BD0A2E2FD8D1
:1030D000002F36D094F9B230D3B13444002094F9A3
:1030E000B3303B6003B0F0BD284605F041FB00283B
:1030F000EAD12B68002BDDD100931A461946A0F5C2
:10310000C97007F0B5F90028DED14FF0FF33D1E7E1
:103110002046FEF7DFFD0028D6D1DEE7009003460B
:10312000024601466FF0C80007F0A2F903B0F0BDF7
:10313000002300931A4619466FF0C90007F098F96A
:10314000C2E700973B463A4639466FF0C80007F0A1
:103150008FF9B9E7FC0900206EFEFFFF2DE9F04171
:10316000044682B0002800F0B680DFF8C0811E4619
:10317000D8F800300D461746002B00F08D80A2696C
:103180009A4209D0002300931A461946664807F070
:103190006FF902B0BDE8F081002D00F0A780002E8D
:1031A00000F0B98094F9B230002B00F08D8094F9D2
:1031B000B53094F9B42094F9B6E094F9B71094F9C5
:1031C000B800003318BF0123002A18BF0133BEF135
:1031D000000F18BF0133002918BF013394F9B9104B
:1031E00094F9BAE0002818BF0133002918BF013351
:1031F00094F9BB0094F9B310BEF1000F18BF01336E
:10320000002818BF013394F9BC00002918BF01330E
:10321000002818BF0133D5B39F4273D321B10022D8
:103220002A7094F9B420012112B101226A54114488
:1032300094F9B52012B102226A54013194F9B620F2
:1032400012B103226A54013194F9B72012B1042259
:103250006A54013194F9B82012B105226A5401313F
:1032600094F9B92012B106226A54013194F9BA20B6
:1032700012B107226A54013194F9BB2012B108221D
:103280006A54013194F9BC200AB109226A54002021
:10329000336002B0BDE8F081404605F069FA0028CD
:1032A0007FF477AFD8F80030002B7FF468AF00933D
:1032B0001A461946A0F5C97007F0DAF800287FF41D
:1032C00068AF4FF0FF335AE72046FEF703FD0028B2
:1032D0007FF45FAF6BE700900346024601466FF054
:1032E000C80007F0C5F802B0BDE8F081002F3FF438
:1032F00056AF00952B462A4629466FF0C90007F0C5
:10330000B7F846E7002300931A4619466FF0CB0042
:1033100007F0AEF83DE700963346324631466FF08F
:10332000C80007F0A5F834E76EFEFFFFFC09002097
:10333000F0B5044683B0002862D0494D2B680E4694
:103340001746002B42D0A2699A4208D0002300936E
:103350001A461946434807F08BF803B0F0BD94F9BC
:10336000A130002B46D094F9B230002B54D0A319D1
:1033700093F9B330002B55D094F8A230002E5DD0D5
:10338000012E47D0022E5BD0692B53D0032E62D082
:10339000082E62D0002300931A4619466FF4167067
:1033A00007F066F80028D8D1002F4BD043783B7047
:1033B000028943899B1A7B60C388818840F281120D
:1033C0005B1ABB603A61FA600020C6E7284605F048
:1033D000CFF90028C1D12B68002BB4D100931A4635
:1033E0001946A0F5C97007F043F80028B5D14FF091
:1033F000FF33A8E72046FEF7C1FB0028ADD1B2E7B6
:1034000000900346024601466FF0C80007F030F80E
:1034100003B0F0BD1448C7E72046FEF75BFC002868
:103420009BD1A4E700931A4619466FF4167007F073
:103430001FF892E7032EABD10C48B5E70C48B3E771
:103440000C48B1E700973B463A4639466FF0C80052
:1034500007F00EF881E70848A6E70848A4E700BF90
:10346000FC0900206EFEFFFF141203082C12030853
:103470000812030820120308381203084412030834
:10348000F0B585B000238DF80F30044600283CD0FD
:103490002F4D2B680E4617461BB3A2699A4208D0DF
:1034A000002300931A4619462A4806F0E1FF05B0AA
:1034B000F0BD032E33D8002F3AD00DF10F01204676
:1034C000FEF788FA0028F2D19DF80F30022B38D091
:1034D0000090034602460146A0F2BE2006F0C8FF57
:1034E000E5E7284605F044F90028E0D12B68002BD9
:1034F000D3D100931A461946A0F5C97006F0B8FF5B
:103500000028D4D14FF0FF33C7E7009003460246AE
:1035100001466FF0C80006F0ABFF05B0F0BD002318
:1035200000931A4619466FF0C90006F0A1FFBEE7E6
:1035300000973B463A4639466FF0C80006F098FFC0
:10354000B5E73A4631462046FEF772FCAFE700BFCA
:10355000FC0900206EFEFFFF2DE9F04188B0002439
:103560008DF8174007940446002856D06D4D9846B4
:103570002B680E461746002B35D0A2699A4209D017
:10358000002300931A461946674806F071FF08B0F9
:10359000BDE8F08194F9A130002B38D094F9B23015
:1035A000002B4DD0A31993F9B330002B40D094F8E1
:1035B000A230002E77D0012E77D0022E77D0692B43
:1035C00044D0032E00F0A180082E00F09C80002340
:1035D00000931A4619466FF4167006F049FF00284A
:1035E000D5D14389FFDE284605F0C2F80028CED1A8
:1035F0002B68002BC1D100931A461946A0F5C9705B
:1036000006F036FF0028C2D14FF0FF33B5E7204661
:10361000FEF7B4FA0028BAD1C0E70090034602468C
:1036200001466FF0C80006F023FF08B0BDE8F08146
:1036300000931A4619466FF4167006F019FFA6E7B4
:103640002046FEF747FB0028A1D1ABE7032EBBD1F4
:10365000364D6A892889EB88A988121A5B1A03FB00
:1036600002F3BFB1434515D80F9B9BB10DF1170174
:103670002046FEF7AFF9002889D19DF81730022BBC
:1036800017D00090034602460146A0F2BE2006F085
:10369000EFFE7CE7002300931A4619466FF0C8003E
:1036A00006F0E6FE73E7224DD3E7224DD1E7224D27
:1036B000CFE72046FDF7D2FF00287FF468AF06AAC7
:1036C00007AB94F8CC1002920193CDF800803B46F2
:1036D0002A462046FEF7D2F878B9079BBBB1D4F84A
:1036E000C430069A0F989342ACBF0423062303709C
:1036F000394603462046FDF7D9FF002384F8C03041
:1037000008B0BDE8F0810D4DA3E70D4DA1E72946B6
:103710003A462046FDF7E2FF0028EED10123079349
:10372000DDE700BFFC0900206EFEFFFF2C1203083E
:103730000812030814120308201203084412030895
:10374000381203082DE9F04F91B000248DF81A408B
:103750008DF81B40044600285CD0DFF8EC821E4642
:10376000D8F800300F461546002B38D0A2699A428F
:1037700009D0002300931A461946B14806F078FE96
:1037800011B0BDE8F08F94F9A130002B3CD094F932
:10379000B230002B51D0E31993F9B330002B44D051
:1037A00094F8A230002F00F09780012F00F097804E
:1037B000022F00F09780692B45D0032F00F09880EE
:1037C000082F00F09280002300931A4619466FF4E8
:1037D000167006F04DFE0028D2D14378FFDE404639
:1037E00004F0C6FF0028CBD1D8F80030002BBDD1A3
:1037F00000931A461946A0F5C97006F039FE002854
:10380000BED14FF0FF33B1E72046FEF7B7F90028ED
:10381000B6D1BCE700900346024601466FF0C800EF
:1038200006F026FE11B0BDE8F08F00931A46194647
:103830006FF4167006F01CFEA2E72046FEF74AFA67
:1038400000289DD1A7E7032FBAD1DFF80092B9F87D
:103850000410B9F80630B9F80880B9F80A208DF8D4
:103860002C705B1A40F28111A2EB08020F910E91AD
:10387000691C0C9203FB02F80D9324DB1B9BCBB15C
:103880001C9B984516D81E9BA3B10DF11A0120462A
:10389000FEF7A0F800287FF473AF9DF81A30022BD2
:1038A00029D00090034602460146A0F2BE2006F051
:1038B000DFFD65E7002300931A4619466FF0C80044
:1038C00006F0D6FD5CE7002300931A4619466FF018
:1038D000C90006F0CDFD53E7DFF87491B7E7DFF8D4
:1038E0007491B4E7DFF87091B1E7DFF87091AEE75B
:1038F000DFF86C91ABE72046FDF7B0FE00287FF4BF
:103900003FAF236B606A07A9984700287CD11D9AB6
:1039100094F9C13002F0080205924FF0010A08AF95
:103920004FF0050B0022089233B102228DF81B20C4
:1039300000220892002BF8D109AB94F8CC10019327
:103940001C9B009302971B9B4A462046FDF796FF5F
:10395000002859D1089AD4F8C4309A425ADC04237A
:103960008DF81B309EB1099B4BB91B9A49462046E6
:10397000FDF7B4FE002847D10123089A09930DF101
:103980001B031B992046FDF791FE00283CD1059BA7
:10399000002B43D1BAF1000F06D09DF81B30012B4C
:1039A00026D043BB4FF0010A6B1C0CD0236B606A1E
:1039B0000AA9984740BB0A9B079A9B1A9D4202DCC2
:1039C00003238DF81B305EB11A9B02930197CDF84B
:1039D00000801B9B0BAA0DF11B012046B04728BBA2
:1039E0009DF81B305A1E022A0BD994F9C13099E771
:1039F0008DF81BB005235A1FD2F1000A4AEB020AC8
:103A0000D2E71E9A00201370002384F8C03011B052
:103A1000BDE8F08F06238DF81B30A4E7BAF1000F44
:103A2000C2D09DF81B30012BBED0BAE70023009313
:103A30001A46044906F01CFD0028D1D0E4E700BF77
:103A40006EFEFFFF2C3B0308FC0900202C1203082C
:103A50000812030814120308201203084412030872
:103A60003812030870B5044682B050B31E4D2B685F
:103A70000E4693B1A2699A4208D0002300931A46D9
:103A800019461A4806F0F4FC02B070BD1EB394F952
:103A9000C0303360002002B070BD284604F068FEDC
:103AA0000028F1D12B68002BE4D100931A46194667
:103AB000A0F5C97006F0DCFC0028E5D14FF0FF331B
:103AC000D8E700900346024601466FF0C80006F0B2
:103AD000CFFC02B070BD00963346324631466FF0DF
:103AE000C80006F0C5FCCFE7FC0900206EFEFFFF12
:103AF00030B5044683B040B3194D2B685BB1A26961
:103B000093421CD0002300931A461946154806F02C
:103B1000AFFC03B030BD284604F02AFE0028F8D1DF
:103B20002B68002BEBD100931A461946A0F5C970FB
:103B300006F09EFC0028ECD14FF0FF33DFE70123B5
:103B4000002084F8C13003B030BD00900346024627
:103B500001466FF0C80006F08BFC03B030BD00BF1B
:103B6000FC0900206EFEFFFFF0B5044683B000287C
:103B700063D05B4D2B680E4617465BB1A2699A4233
:103B80001CD0002300931A461946564806F070FCD4
:103B900003B0F0BD284604F0EBFD0028F8D12B68F7
:103BA000002BEBD100931A461946A0F5C97006F018
:103BB0005FFC0028ECD14FF0FF33DFE72B68002BD0
:103BC0004CD09A422CD0002300931A4619464548FF
:103BD00006F04EFC0028DBD1002F05DB662E36D028
:103BE000672E4BD0652E42D0002300931A4619460B
:103BF0006FF0C90006F03CFC0028C9D1662E29D020
:103C0000672E48D0652E37D0009003460246014605
:103C10006FF0C90006F02CFC0028B9D10060FFDE6F
:103C200094F9C030002BD7D0002300931A461946D0
:103C30006FF42F7006F01CFCAAE7009003460246C2
:103C400001466FF0C80006F013FC03B0F0BD7B1E08
:103C5000012B22D8CC342760002099E7204804F0BB
:103C600087FD002894D12B6803B3A269A9E7632FCD
:103C700029DC7B1E012B10D8C434ECE7632FB3DDA5
:103C8000002300931A4619466FF0C90006F0F0FBB6
:103C900000287FF47DAFC834DDE7002300931A4687
:103CA00011496FF0CA0006F0E3FBA5E700931A463E
:103CB00019460C4806F0DCFB00287FF469AFA269C6
:103CC0004FF0FF337DE7002300931A4619466FF04B
:103CD000C90006F0CDFB00287FF45AAFCCE700BF47
:103CE000FC0900206EFEFFFF483B0308F0B50446C8
:103CF00083B000283ED02B4D2B680E461746FBB1F3
:103D0000A2699A4208D0002300931A461946264811
:103D100006F0AEFB03B0F0BD002F39D0662E23D0E5
:103D2000672E33D0652E2FD0002300931A461946F4
:103D30006FF0C90006F09CFB0028EBD10368FFDEA2
:103D4000284604F015FD0028E4D12B68002BD7D1BC
:103D500000931A461946A0F5C97006F089FB0028A1
:103D6000D8D14FF0FF33CBE7CC3423683B60002041
:103D700003B0F0BD00900346024601466FF0C80054
:103D800006F076FB03B0F0BDC434EEE7C834ECE7D0
:103D900000973B463A4639466FF0C80006F068FB8C
:103DA000B8E700BFFC0900206EFEFFFFF0B585B04C
:103DB00000238DF80E30044600286AD0494D2B6848
:103DC0000E461746002B41D0A2699A420AD0002322
:103DD0001A4600931946444806F04AFB024610462C
:103DE00005B0F0BD022E46D0FE2F46D80DF10E01D3
:103DF0002046FDF7EFFD02460028F0D19DF80E3079
:103E0000022B60D194F8A230692B4ED0022E62D0E2
:103E1000324683214FF47A732034009320460023E6
:103E2000FDF72EFB02460028D9D104AB012103F88F
:103E3000011D20461146FDF76DFB02460028CED13C
:103E40009DF80F00FDF79AFA0246C8E7284604F0ED
:103E50008FFC02460028C2D12B68002BB4D11A4631
:103E600000931946204806F003FB02460028B6D10D
:103E70004FF0FF33A8E7002FB6D100231A46009376
:103E800019466FF0C90006F0F3FA0246104605B075
:103E9000F0BD00900346024601466FF0C80006F0F0
:103EA000E7FA0246104605B0F0BD002EB0D0012E54
:103EB00015D002460090034601466FF4167006F0D6
:103EC000D7FA02468BE7009003460146074806F002
:103ED000CFFA024683E77A1CD2B283219AE7842183
:103EE00098E700BFFC0900206EFEFFFF42FDFFFFC8
:103EF00030B585B000238DF80F300446002838D047
:103F0000214D2B685BB1A2699A421CD0002300931B
:103F10001A4619461D4806F0ABFA05B030BD2846D2
:103F200004F026FC0028F8D12B68002BEBD100937D
:103F30001A461946A0F5C97006F09AFA0028ECD185
:103F40004FF0FF33DFE720460DF10F01FDF742FD93
:103F50000028E2D19DF80F300090022B0246034664
:103F6000014614BFA0F2BE206FF4167006F080FA6E
:103F7000D3E700900346024601466FF0C80006F002
:103F800077FA05B030BD00BFFC0900206EFEFFFFD0
:103F900000B5012183B00B4806F00CF820B90A4B9C
:103FA0001A7822B901221A7003B05DF804FB009060
:103FB000034602460146A0F25B2006F059FA03B020
:103FC0005DF804FB79400008380A002010B504466B
:103FD00082B050B101210A4805F0ECFF18B9094B35
:103FE0001B785BB2236002B010BD0090034602460E
:103FF00001466FF0C80006F03BFA02B010BD00BFEA
:1040000079400008380A0020034B1A780AB10022D0
:104010001A700020704700BF380A002070B50546AE
:1040200082B00E4611480121144605F0C3FF30B995
:104030000F4B1B782BB175B17CB10020206002B012
:1040400070BD0090034602460A49A0F25B2006F0CC
:104050000FFA02B070BD002EEED0002300931A4676
:1040600019466FF0C80006F003FAE8E77940000847
:10407000380A0020143B030838B50A4C236805466B
:104080002BB129461846BDE8384004F099BE2346B6
:10409000054A7021201D05F0B5FB08B92368F0E73B
:1040A00038BD00BF3C0A0020AD400008F0B585B027
:1040B000002303931646002A31D003AD2A4602F0AE
:1040C000D3FF044630B12946002004F079FE204693
:1040D00005B0F0BD0398002837D090F9203043BBDD
:1040E000204F214C2149224A0365224BDFF894E0FE
:1040F000C7620463204F214CC16302640121062280
:10410000436440F2E913C0F828E0476384638164A4
:10411000C2644365314604F053FE0446D3E700927F
:10412000134611466FF0C80006F0A2F903AD04462D
:10413000C9E70094234622462146114806F098F923
:104140000446002CBFD10398E4E70094234622469E
:1041500021466FF0C80006F08BF90446002CB2D15E
:10416000F1E700BF8C3B0308B03B0308C03B0308EA
:10417000E03B0308C83B0308243C03080C3C03084D
:10418000A5FDFFFF7C3B030870B584B00023064605
:1041900001212648039305F00DFF0446B8B9002E0F
:1041A00038D0234D286850B303AD294604F008FEEB
:1041B000044628B93146039803F0AAF9044640B1F1
:1041C0002946002004F0FCFD204604B070BD03AD7C
:1041D000F6E7311D039803F0E1F904460028EFD11A
:1041E00006F10801039803F01FFA04460028E7D1FE
:1041F00006F10C01039803F05DFA0446E0E72B4654
:104200000C4A7021281D05F0FDFA04460028DED175
:104210002868C9E700900346024601466FF0C800CF
:1042200006F026F903AD0446CAE700BF794000084E
:104230003C0A0020AD40000818B1084B4362002042
:10424000704700B583B003460090024601466FF008
:10425000C80006F00DF903B05DF804FB0144000846
:1042600030B5044683B000283CD0244D2B6823B3DE
:10427000A2699A420AD0002300931A4619462048A0
:1042800006F0F6F80346184603B030BD63699B6933
:10429000002BF0D02046984703460028F3D104F1C4
:1042A0001C0104F081FA03460028ECD104F110014E
:1042B00003B0BDE8304004F077BA284604F058FA5D
:1042C00003460028DFD12B68002BD1D100931A467A
:1042D00019460B4806F0CCF803460028D3D14FF01E
:1042E000FF33C5E700900346024601466FF0C80061
:1042F00006F0BEF80346184603B030BDB00A0020F1
:104300006EFEFFFF2DE9F04188B04FF0FF3500232E
:10431000069507930646002849D004F0A3FA044600
:1043200060B1079B33B193F90C301BB107A9002092
:1043300004F03AFA204608B0BDE8F081DFF8BC800E
:10434000D8F80070EFB106A803F0E0FD044600289D
:10435000E7D107A9384603F0EFFF04460028E0D173
:10436000079870B3B76106F11C0104F01DFA04460A
:104370000028D6D106F11001079804F015FA04467A
:10438000CFE7404604F0F4F904460028C9D1D8F834
:104390000070002FD7D100973B463A463946134864
:1043A00006F066F804460028BBD12F46CBE7009004
:1043B0000346024601466FF0C80006F059F804466D
:1043C000AFE772690A4C049007AB0A480A4D05939F
:1043D00038238DE8310006990393384604F0BAF883
:1043E000044600289DD10798BCE700BF6EFEFFFF82
:1043F0006142000839420008B40A0020B00A0020D7
:1044000030B5044683B000283DD0324D2B685BB1F7
:10441000A2699A421CD0002300931A4619462E48DE
:1044200006F026F803B030BD284604F0A1F90028B4
:10443000F8D12B68002BEBD100931A461946A0F552
:10444000C97006F015F80028ECD14FF0FF33DFE714
:104450002B6813B3934229D0002300931A461946C0
:104460001D4806F005F80028DCD104F12005284697
:1044700001F054FA0028D5D163695B6A204603B085
:10448000BDE83040184700900346024601466FF0F1
:10449000C80005F0EDFF03B030BD0E4804F068F928
:1044A0000028BFD12B684BB1A269D3E704F12005E6
:1044B000284601F003FB0028B4D1D8E700931A4640
:1044C0001946054805F0D4FF0028ABD1A2694FF08A
:1044D000FF33BFE7B00A00206EFEFFFF30B5044691
:1044E00083B0B8B1104D2A681AB12260002003B021
:1044F00030BD284604F03CF90028F8D12A68002A8B
:10450000F3D10090034602460146A0F5C97005F0BC
:10451000AFFFECE700900346024601466FF0C8008B
:1045200005F0A6FFE3E700BFB00A00202DE9F04741
:1045300084B004AC002344F8043D8046894692468A
:104540002B492246442003F043FE054680B9039ED2
:10455000002E43D0274F3B6893B1B2699A4224D0D2
:10456000002300931A461946234805F081FF0546AB
:104570002146002004F024FC284604B0BDE8F08762
:10458000384604F0F5F805460028F1D13B68002BC9
:10459000E3D100931A461946174805F069FF05460E
:1045A0000028E5D14FF0FF33D7E74FF0FF330193F9
:1045B00000934A46414606F12000002301F090F89E
:1045C00005460028D4D15146039804F0F9FB05466E
:1045D0000028CDD1214604F0F3FBCDE7009003463F
:1045E000024601466FF0C80005F042FF0546BFE7EE
:1045F00005430008B00A00206EFEFFFF2DE9F04FD2
:1046000085B004AC002544F8045D07468846914611
:104610002D49224644209A4603F0DAFD054690B91A
:10462000039E002E46D0DFF8A8B0DBF8003093B12F
:10463000B2699A4225D0002300931A4619462348AE
:1046400005F016FF05462146002004F0B9FB284678
:1046500005B0BDE8F08F584604F08AF805460028FA
:10466000F1D1DBF80030002BE2D100931A46194655
:10467000164805F0FDFE05460028E4D14FF0FF3353
:10468000D6E74FF0FF35019500954B464246394637
:1046900006F1200001F024F805460028D3D1514648
:1046A000039804F08DFB05460028CCD1214604F088
:1046B00087FBCCE700900346024601466FF0C80036
:1046C00005F0D6FE0546BEE7054300086EFEFFFF77
:1046D000B00A00202DE9F04F85B004AC002544F865
:1046E000045D0746884691462B49224644209A4657
:1046F00003F06EFD054690B9039E002E41D0DFF811
:10470000A0B0DBF8003093B1B2699A4225D0002303
:1047100000931A461946214805F0AAFE054621468F
:10472000002004F04DFB284605B0BDE8F08F584648
:1047300004F01EF805460028F1D1DBF80030002B0C
:10474000E2D100931A461946144805F091FE054639
:104750000028E4D14FF0FF33D6E70E9B0193CDF84C
:1047600000A04B464246394606F1200000F0B8FF53
:1047700005460028D3D10F99039804F021FB054684
:10478000CDE700900346024601466FF0C80005F0F1
:104790006FFE0546C3E700BF054300086EFEFFFF3E
:1047A000B00A002070B5044682B058B31A4D2B6889
:1047B0000E465BB1A2699A421CD0002300931A46B0
:1047C0001946164805F054FE02B070BD284603F0A5
:1047D000CFFF0028F8D12B68002BEBD100931A46AD
:1047E0001946A0F5C97005F043FE0028ECD14FF042
:1047F000FF33DFE7314604F1200002B0BDE870402E
:1048000001F0AAB800900346024601466FF0C800C6
:1048100005F02EFE02B070BDB00A00206EFEFFFF54
:1048200070B5044682B058B31A4D2B680E465BB182
:10483000A2699A421CD0002300931A4619461648D2
:1048400005F016FE02B070BD284603F091FF002867
:10485000F8D12B68002BEBD100931A461946A0F52E
:10486000C97005F005FE0028ECD14FF0FF33DFE7FB
:10487000314604F1200002B0BDE8704001F08CB870
:1048800000900346024601466FF0C80005F0F0FDB7
:1048900002B070BDB00A00206EFEFFFF70B5044686
:1048A00082B058B31A4D2B680E465BB1A2699A428A
:1048B0001CD0002300931A461946164805F0D8FD6F
:1048C00002B070BD284603F053FF0028F8D12B68D2
:1048D000002BEBD100931A461946A0F5C97005F0DC
:1048E000C7FD0028ECD14FF0FF33DFE7314604F17C
:1048F000200002B0BDE8704001F06EB800900346A1
:10490000024601466FF0C80005F0B2FD02B070BD6E
:10491000B00A00206EFEFFFF70B5044682B058B3A7
:104920001A4D2B680E465BB1A2699A421CD0002337
:1049300000931A461946164805F09AFD02B070BD5C
:10494000284603F015FF0028F8D12B68002BEBD187
:1049500000931A461946A0F5C97005F089FD002894
:10496000ECD14FF0FF33DFE7314604F1200002B015
:10497000BDE8704001F082B800900346024601464F
:104980006FF0C80005F074FD02B070BDB00A0020E1
:104990006EFEFFFF70B5044682B058B31A4D2B6807
:1049A0000E465BB1A2699A421CD0002300931A46BE
:1049B0001946164805F05CFD02B070BD284603F0AC
:1049C000D7FE0028F8D12B68002BEBD100931A46B4
:1049D0001946A0F5C97005F04BFD0028ECD14FF049
:1049E000FF33DFE7314604F1200002B0BDE870403C
:1049F00001F05AB900900346024601466FF0C80024
:104A000005F036FD02B070BDB00A00206EFEFFFF5B
:104A100030B5044683B048B3194D2B685BB1A26929
:104A200093421CD0002300931A461946154805F0FE
:104A30001FFD03B030BD284603F09AFE0028F8D1D0
:104A40002B68002BEBD100931A461946A0F5C970CC
:104A500005F00EFD0028ECD14FF0FF33DFE704F145
:104A6000200003B0BDE8304001F028B800900346B4
:104A7000024601466FF0C80005F0FAFC03B030BDF5
:104A8000B00A00206EFEFFFF70B5044682B058B336
:104A90001A4D2B680E465BB1A2699A421CD00023C6
:104AA00000931A461946164805F0E2FC02B070BDA4
:104AB000284603F05DFE0028F8D12B68002BEBD1CF
:104AC00000931A461946A0F5C97005F0D1FC0028DC
:104AD000ECD14FF0FF33DFE7314604F1200002B0A4
:104AE000BDE8704001F026B800900346024601463A
:104AF0006FF0C80005F0BCFC02B070BDB00A002029
:104B00006EFEFFFFF0B5044683B068B31B4D2B6803
:104B10000E4617465BB1A2699A421CD0002300934F
:104B20001A461946164805F0A3FC03B0F0BD284606
:104B300003F01EFE0028F8D12B68002BEBD1009368
:104B40001A461946A0F5C97005F092FC0028ECD170
:104B50004FF0FF33DFE73A46314604F1200003B05F
:104B6000BDE8F04001F036B8009003460246014629
:104B70006FF0C80005F07CFC03B0F0BDB00A002067
:104B80006EFEFFFFF0B5044683B068B31B4D2B6883
:104B90000E4617465BB1A2699A421CD000230093CF
:104BA0001A461946164805F063FC03B0F0BD2846C6
:104BB00003F0DEFD0028F8D12B68002BEBD1009329
:104BC0001A461946A0F5C97005F052FC0028ECD130
:104BD0004FF0FF33DFE73A46314604F1200003B0DF
:104BE000BDE8F04001F0B0B800900346024601462F
:104BF0006FF0C80005F03CFC03B0F0BDB00A002027
:104C00006EFEFFFFF0B5044683B068B31B4D2B6802
:104C10000E4617465BB1A2699A421CD0002300934E
:104C20001A461946164805F023FC03B0F0BD284685
:104C300003F09EFD0028F8D12B68002BEBD10093E8
:104C40001A461946A0F5C97005F012FC0028ECD1EF
:104C50004FF0FF33DFE73A46314604F1200003B05E
:104C6000BDE8F04001F0D6B8009003460246014688
:104C70006FF0C80005F0FCFB03B0F0BDB00A0020E7
:104C80006EFEFFFF2DE9F041044682B080B31E4D59
:104C900098462B680E46174663B1A2699A421DD00A
:104CA000002300931A461946184805F0E1FB02B0AC
:104CB000BDE8F081284603F05BFD0028F7D12B68A2
:104CC000002BEAD100931A461946A0F5C97005F0E9
:104CD000CFFB0028EBD14FF0FF33DEE743463A46E7
:104CE000314604F1200002B0BDE8F04101F042B9C4
:104CF00000900346024601466FF0C80005F0B8FB7D
:104D000002B0BDE8F08100BFB00A00206EFEFFFFD8
:104D10002DE9F041044682B080B31E4D98462B68C1
:104D20000E46174663B1A2699A421DD00023009334
:104D30001A461946184805F09BFB02B0BDE8F08101
:104D4000284603F015FD0028F7D12B68002BEAD187
:104D500000931A461946A0F5C97005F089FB002892
:104D6000EBD14FF0FF33DEE743463A46314604F1DC
:104D7000200002B0BDE8F04101F0ACB9009003465C
:104D8000024601466FF0C80005F072FB02B0BDE8B4
:104D9000F08100BFB00A00206EFEFFFFF0B50446B0
:104DA00083B068B31B4D2B680E4617465BB1A269F2
:104DB0009A421CD0002300931A461946164805F063
:104DC00057FB03B0F0BD284603F0D2FC0028F8D111
:104DD0002B68002BEBD100931A461946A0F5C97039
:104DE00005F046FB0028ECD14FF0FF33DFE73A46F1
:104DF000314604F1200003B0BDE8F04001F0D4B921
:104E000000900346024601466FF0C80005F030FBF3
:104E100003B0F0BDB00A00206EFEFFFFF0B50446FF
:104E200083B068B31B4D2B680E4617465BB1A26971
:104E30009A421CD0002300931A461946164805F0E2
:104E400017FB03B0F0BD284603F092FC0028F8D110
:104E50002B68002BEBD100931A461946A0F5C970B8
:104E600005F006FB0028ECD14FF0FF33DFE73A46B0
:104E7000314604F1200003B0BDE8F04001F0C8B9AC
:104E800000900346024601466FF0C80005F0F0FAB4
:104E900003B0F0BDB00A00206EFEFFFF2DE9F04127
:104EA000044682B080B31E4D98462B680E461746C6
:104EB00063B1A2699A421DD0002300931A46194695
:104EC000184805F0D5FA02B0BDE8F081284603F095
:104ED0004FFC0028F7D12B68002BEAD100931A462B
:104EE0001946A0F5C97005F0C3FA0028EBD14FF0C0
:104EF000FF33DEE743463A46314604F1200002B074
:104F0000BDE8F04101F0BCB90090034602460146FD
:104F10006FF0C80005F0ACFA02B0BDE8F08100BF48
:104F2000B00A00206EFEFFFF2DE9F041044682B07A
:104F300080B31E4D98462B680E46174663B1A26992
:104F40009A421DD0002300931A461946184805F0CE
:104F50008FFA02B0BDE8F081284603F009FC002872
:104F6000F7D12B68002BEAD100931A461946A0F519
:104F7000C97005F07DFA0028EBD14FF0FF33DEE772
:104F800043463A46314604F1200002B0BDE8F04104
:104F900001F0E2B900900346024601466FF0C800F6
:104FA00005F066FA02B0BDE8F08100BFB00A00204B
:104FB0006EFEFFFF2DE9F04782B00A9FDDF82C80DE
:104FC000002835D0204D99462B68044616468A465F
:104FD00063B1A2699A421ED000231C480A931A4664
:104FE000194602B0BDE8F04705F042BA284603F082
:104FF000BFFB68B92B68002BEBD100931A4619460A
:10500000A0F5C97005F034FA10B94FF0FF33E0E7AE
:1050100002B0BDE8F0874B463246514604F120000D
:10502000CDF82C800A9702B0BDE8F04701F0F6B940
:105030000A900346024601466FF0C80002B0BDE880
:10504000F04705F015BA00BFB00A00206EFEFFFF62
:105050002DE9F04383B00A9F002833D01F4D9846B6
:105060002B68044691460E4663B1A2699A421ED04F
:1050700000231B480A931A46194603B0BDE8F043C3
:1050800005F0F6B9284603F073FB68B92B68002BCE
:10509000EBD100931A461946A0F5C97005F0E8F95E
:1050A00010B94FF0FF33E0E703B0BDE8F0834346AB
:1050B0004A46314604F120000A9703B0BDE8F043A8
:1050C00001F01ABA0A900346024601466FF0C80082
:1050D00003B0BDE8F04305F0CBB900BFB00A002033
:1050E0006EFEFFFF2DE9F041044682B080B31E4DF5
:1050F00098462B680E46174663B1A2699A421DD0A6
:10510000002300931A461946184805F0B1F902B079
:10511000BDE8F081284603F02BFB0028F7D12B686F
:10512000002BEAD100931A461946A0F5C97005F084
:105130009FF90028EBD14FF0FF33DEE743463A46B4
:10514000314604F1200002B0BDE8F04101F056BA4A
:1051500000900346024601466FF0C80005F088F94A
:1051600002B0BDE8F08100BFB00A00206EFEFFFF74
:105170002DE9F04383B00A9F002833D01F4D984695
:105180002B68044691460E4663B1A2699A421ED02E
:1051900000231B480A931A46194603B0BDE8F043A2
:1051A00005F066B9284603F0E3FA68B92B68002BCE
:1051B000EBD100931A461946A0F5C97005F058F9CD
:1051C00010B94FF0FF33E0E703B0BDE8F08343468A
:1051D0004A46314604F120000A9703B0BDE8F04387
:1051E00001F086BA0A900346024601466FF0C800F5
:1051F00003B0BDE8F04305F03BB900BFB00A0020A2
:105200006EFEFFFF2DE9F04782B00A9FDDF82C808B
:10521000002835D0204D99462B68044616468A460C
:1052200063B1A2699A421ED000231C480A931A4611
:10523000194602B0BDE8F04705F01AB9284603F058
:1052400097FA68B92B68002BEBD100931A461946E0
:10525000A0F5C97005F00CF910B94FF0FF33E0E785
:1052600002B0BDE8F0874B463246514604F12000BB
:10527000CDF82C800A9702B0BDE8F04701F0B6BA2D
:105280000A900346024601466FF0C80002B0BDE82E
:10529000F04705F0EDB800BFB00A00206EFEFFFF3A
:1052A0002DE9F041044682B080B31E4D98462B682C
:1052B0000E46174663B1A2699A421DD0002300939F
:1052C0001A461946184805F0D3F802B0BDE8F08137
:1052D000284603F04DFA0028F7D12B68002BEAD1BD
:1052E00000931A461946A0F5C97005F0C1F80028C8
:1052F000EBD14FF0FF33DEE743463A46314604F147
:10530000200002B0BDE8F04101F0E8BA0090034689
:10531000024601466FF0C80005F0AAF802B0BDE8E9
:10532000F08100BFB00A00206EFEFFFF2DE9F047BC
:1053300082B00A9FDDF82C80002835D0204D994698
:105340002B68044616468A4663B1A2699A421ED06B
:1053500000231C480A931A46194602B0BDE8F047DC
:1053600005F086B8284603F003FA68B92B68002BCD
:10537000EBD100931A461946A0F5C97005F078F8EC
:1053800010B94FF0FF33E0E702B0BDE8F0874B46BD
:105390003246514604F12000CDF82C800A9702B025
:1053A000BDE8F04701F0C8BA0A900346024601463C
:1053B0006FF0C80002B0BDE8F04705F059B800BF73
:1053C000B00A00206EFEFFFF2DE9F041044682B0D6
:1053D00080B31E4D98462B680E46174663B1A269EE
:1053E0009A421DD0002300931A461946184805F02A
:1053F0003FF802B0BDE8F081284603F0B9F9002873
:10540000F7D12B68002BEAD100931A461946A0F574
:10541000C97005F02DF80028EBD14FF0FF33DEE71F
:1054200043463A46314604F1200002B0BDE8F0415F
:1054300001F004BB00900346024601466FF0C8002D
:1054400005F016F802B0BDE8F08100BFB00A0020F8
:105450006EFEFFFF2DE9F04782B00A9FDDF82C8039
:10546000002835D0204D99462B68044616468A46BA
:1054700063B1A2699A421ED000231C480A931A46BF
:10548000194602B0BDE8F04704F0F2BF284603F029
:105490006FF968B92B68002BEBD100931A461946B7
:1054A000A0F5C97004F0E4FF10B94FF0FF33E0E756
:1054B00002B0BDE8F0874B463246514604F1200069
:1054C000CDF82C800A9702B0BDE8F04701F032BB5E
:1054D0000A900346024601466FF0C80002B0BDE8DC
:1054E000F04704F0C5BF00BFB00A00206EFEFFFF0A
:1054F0002DE9F041044682B080B31E4D98462B68DA
:105500000E46174663B1A2699A421DD0002300934C
:105510001A461946184804F0ABFF02B0BDE8F08106
:10552000284603F025F90028F7D12B68002BEAD193
:1055300000931A461946A0F5C97004F099FF002897
:10554000EBD14FF0FF33DEE743463A46314604F1F4
:10555000200002B0BDE8F04101F052BB00900346CC
:10556000024601466FF0C80004F082FF02B0BDE8B9
:10557000F08100BFB00A00206EFEFFFF30B5044688
:1055800083B0002839D0006830BB0B4669B392B9AC
:10559000002001214FF0FF35E360A260E561256244
:1055A000616021606061A0612061044602F0D6FA6A
:1055B000204603B030BD0429EAD0009003460246DD
:1055C00013496FF0C90004F053FF0446002002F0B5
:1055D000C5FA204603B030BD002300931A46194691
:1055E0000C4804F045FF0446F0E700910A466FF0CE
:1055F000C90004F03DFF0446E8E700900346024678
:1056000001466FF0C80004F033FF0446DEE700BF38
:10561000343C0308A5FDFFFF70B586B00025059555
:10562000044600284DD0006800282CD116460A46B2
:10563000002931D0B6B9E260002B36D11D460020DA
:105640004FF0FF3101222561A660A3616061E16135
:105650002162626022600546059002F07FFA2846CA
:1056600006B070BD0429E6D00090034602461A49F0
:105670006FF0C90004F0FCFE0546059802F06EFAD2
:10568000284606B070BD00952B462A462946134889
:1056900004F0EEFE0546F0E700910B460A466FF077
:1056A000C90004F0E5FE0546E7E71046194605AADD
:1056B000039302F0D1F905460028DED1059D039B36
:1056C000BDE700900346024601466FF0C80004F0B3
:1056D000CFFE0546D1E700BF343C0308A5FDFFFF20
:1056E00070B586B0002505950446002859D01646A9
:1056F0000268002A3CD100292BD0D6B90A9A9342DD
:1057000027D8E160002B41D11D46A3610A9BE361CC
:10571000002201210B9B25611046A6602362626175
:10572000059215466160216002F018FA284606B01D
:1057300070BD0429E2D00092134620496FF0C900E1
:1057400004F096FE0546059802F008FA284606B0D1
:1057500070BD002300931A4619466FF0C90004F08B
:1057600087FE0546059802F0F9F9284606B070BD97
:105770002B462A4629460095114804F079FE054635
:10578000059802F0EBF9284606B070BD084605AA58
:105790001946039302F060F9039B054660B9059D25
:1057A000B3E700900346024601466FF0C80004F0DC
:1057B0005FFE05460598B7E70598B5E7343C030852
:1057C000A5FDFFFFF0B5069D059E0446C5B9374609
:1057D000AE465CB12068002839D171B3A2B9002B64
:1057E0003ED0BE4229D8DDB9BE4219D00023059370
:1057F0001A4619466FF0C800BDE8F04004F038BE04
:105800004FF0FF37BE46E4E70429E8D00590034691
:10581000024616496FF0C900BDE8F04004F028BE0A
:105820000020E1600121A260A661E761C4F820E0E8
:105830002361656060612160F0BD002305931A4615
:1058400019466FF0C900BDE8F04004F011BE002316
:1058500005931A4619460648BDE8F04004F008BE14
:10586000002EC3D1002DDBD1BEE700BF343C0308BE
:10587000A5FDFFFFF0B5059D069F079EDDF820E022
:1058800060B104460068002835D151B382B9002BBD
:105890003AD0B54225D8BFB9B54215D000230593FB
:1058A0001A4619466FF0C800BDE8F04004F0E0BDAC
:1058B0000429ECD005900346024616496FF0C90052
:1058C000BDE8F04004F0D4BD0020E1600121A260F9
:1058D000A561E661C4F820E0236167606061216032
:1058E000F0BD002305931A4619466FF0C900BDE8C4
:1058F000F04004F0BDBD002305931A461946064842
:10590000BDE8F04004F0B4BD002DC7D1002FDBD1BD
:10591000C2E700BF343C0308A5FDFFFF10B50446F5
:1059200082B078B10068A8B163681BB1206902F049
:1059300015F978B920462422002102B0BDE81040B4
:1059400002F03EB800900346024601466FF0C800E0
:1059500004F08EFD02B010BD00B583B088B10368BD
:1059600033B171B183680B60002003B05DF804FBB4
:1059700000931A461946074804F07AFD03B05DF813
:1059800004FB002300931A4619466FF0C80004F088
:105990006FFDEAE7A5FDFFFF00B583B088B103689E
:1059A00033B171B183690B60002003B05DF804FB73
:1059B00000931A461946074804F05AFD03B05DF8F3
:1059C00004FB002300931A4619466FF0C80004F048
:1059D0004FFDEAE7A5FDFFFF30B5044683B0002880
:1059E00040D0036853B343698B420D4610D8C36956
:1059F00099420DD88369994232D0036A33B3436820
:105A000023B379B9006902F0A9F848B9256111E01A
:105A1000002300931A4619466FF0C90004F028FDD0
:105A200003B030BD0A4600F11001C06802F068F80A
:105A30000028F5D10020A56103B030BD00931A46BF
:105A400019460D4804F014FD03B030BD0023009347
:105A50001A4619466FF4167004F00AFD03B030BD03
:105A60000020DDE700900346024601466FF0C800C3
:105A700004F0FEFCD4E700BFA5FDFFFF00B583B036
:105A800088B1036833B171B143690B60002003B082
:105A90005DF804FB00931A461946074804F0E8FC39
:105AA00003B05DF804FB002300931A4619466FF01B
:105AB000C80004F0DDFCEAE7A5FDFFFFF0B50446F1
:105AC00083B058B303680BB34769E7B18368B3B1D8
:105AD00006690025306802F015FB0135A0B9E068C1
:105AE000AF420644F6D163699F4207D22169DB1BAE
:105AF00000FB071202F05CF830B96369DB1B002081
:105B0000636103B0F0BD384603B0F0BD00931A46A0
