:020000040800F2
:1000000018040020792700083D2700083F27000832
:10001000412700084327000845270008000000008A
:10002000000000000000000000000000472700085A
:1000300049270008000000004B2700084D27000852
:10004000B5270008B9270008BD270008C127000808
:10005000C5270008C9270008CD270008D1270008B8
:10006000D5270008D9270008DD270008E127000868
:10007000E5270008E9270008ED270008F127000818
:10008000F5270008F9270008FD27000801280008C7
:1000900005280008092800080D2800081128000874
:1000A00015280008192800081D2800082128000824
:1000B00025280008292800082D28000831280008D4
:1000C00035280008392800083D2800084128000884
:1000D00045280008492800084D2800085128000834
:1000E00055280008592800085D28000861280008E4
:1000F00065280008692800086D2800087128000894
:1001000075280008792800087D2800088128000843
:1001100085280008892800088D28000891280008F3
:1001200095280008992800089D280008A1280008A3
:10013000A52800080000000000000000A928000811
:10014000AD280008B1280008B5280008B928000823
:10015000BD280008C1280008C5280008C9280008D3
:10016000CD280008D1280008D5280008D928000883
:10017000DD280008E1280008E5280008000000004C
:1001800000000000E9280008000000000000000056
:10019000ED2800080000000000000000F128000821
:1001A000000000000000000000000000F52800082A
:1001B000F9280008FD280008012900080529000881
:1001C00009290008000000000000000000000000F5
:1001D000000000000000000000000000000000001F
:1001E00000000000000000000000000C000C000CEB
:1001F000000C000C000C000C000C000C000C000C9F
:100200000000000C000C0000000000000000001BBB
:10021000001B001B001B001B000000000000000072
:1002200000000000000000000000000000000000CE
:1002300000008019801980198019C07FC07F801943
:100240000033C07FC07F0033003300330033000031
:10025000000000000000001E003F807580650074F3
:10026000003C001E00078005806580658075003FAA
:10027000001E0004000400000000007000D840D8F8
:10028000C0D880D900730006000C801BC036C06641
:10029000C046C00680030000000000000000001EF1
:1002A000003F003300330033001E000CC03CC0662A
:1002B000806380618063C03E801C000000000000FD
:1002C0000000000C000C000C000C000C00000000F2
:1002D000000000000000000000000000000000001E
:1002E000000000008000000100030006000600047A
:1002F000000C000C000C000C000C000C00040006AC
:100300000006000300018000002000100018000C0F
:10031000000C0004000600060006000600060006A9
:100320000004000C000C0018001000200000000C5D
:10033000002D003F001E0033000000000000000000
:1003400000000000000000000000000000000000AD
:10035000000000000000000C000C000C000CC0FFAE
:10036000C0FF000C000C000C000C0000000000009E
:10037000000000000000000000000000000000007D
:100380000000000000000000000000000000000C61
:10039000000C000400040008000000000000000041
:1003A00000000000000000000000001E001E000011
:1003B000000000000000000000000000000000003D
:1003C000000000000000000000000000000000002D
:1003D000000000000000000C000C00000000000005
:1003E00000000003000300030006000600060006EC
:1003F000000C000C000C000C001800180018000085
:10040000000000000000001E003F0033806180619A
:100410008061806D806D8061806180610033003F0C
:10042000001E00000000000000000006000E001E7C
:10043000003600260006000600060006000600063C
:100440000006000600060000000000000000001E7C
:10045000003F807380618061800100030006000C12
:10046000001800300060807F807F000000000000E6
:100470000000001C003E006300630003000E000E3D
:1004800000038001800180618073003F001E000036
:100490000000000000000006000E000E001E001EFE
:1004A0000016003600360066807F807F000600065A
:1004B00000060000000000000000007F007F0060D8
:1004C00000600060006E007F8063800180018061B9
:1004D0008073003F001E0000000000000000001EAE
:1004E000003F803380610060006E007F8073806118
:1004F000806180618033003F001E0000000000002A
:100500000000807F807F800100030003000600065A
:10051000000C000C000C0008001800180018000067
:10052000000000000000001E003F806380618061C9
:100530000021001E003F8061806180618061003F7A
:10054000001E0000000000000000001E003F0073BD
:100550008061806180618073803F801D8001806147
:100560000073003F001E00000000000000000000BB
:10057000000000000000000C000C00000000000063
:10058000000000000000000C000C00000000000053
:10059000000000000000000000000000000C000C43
:1005A00000000000000000000000000C000C00042F
:1005B000000400080000000000000000800080032C
:1005C000000E003800600038000E8003800000003C
:1005D000000000000000000000000000000000001B
:1005E0000000807F807F00000000807F807F00000F
:1005F00000000000000000000000000000000000FB
:100600000000000000400070001C0007800100078F
:10061000001C00700040000000000000000000000E
:100620000000001F803FC071C060C000C001800397
:100630000007000E000C000C0000000C000C000075
:10064000000000000000001E003F803180718063C8
:10065000806F806D806D806F806700600032003E2B
:10066000001C0000000000000000000E000E001B37
:10067000001B001B001B80318031803F803F803198
:10068000C060C060C0600000000000000000007C8E
:10069000007E0063006300630063007E007E0063F1
:1006A000806180618063007F007E000000000000A8
:1006B0000000001E003F803180610060006000602B
:1006C00000600060006080618031003F001E00001B
:1006D000000000000000007C007F006380638061F8
:1006E0008061806180618061806100630063007E61
:1006F000007C0000000000000000807F807F006020
:10070000006000600060007F007F006000600060AB
:100710000060807F807F0000000000000000807F7C
:10072000807F0060006000600060007F007F0060EC
:1007300000600060006000600060000000000000D9
:100740000000001E003F803180610060006000609A
:1007500080638063806180618031803F001E000083
:100760000000000000008061806180618061806124
:100770008061807F807F8061806180618061806135
:1007800080610000000000000000003F003F000CFE
:10079000000C000C000C000C000C000C000C000CF9
:1007A000000C003F003F000000000000000080013E
:1007B0008001800180018001800180018001800131
:1007C000806180618073003F001E00000000000017
:1007D0000000C0608061006300660066006C007805
:1007E000007C00660066006380618061C06000007C
:1007F0000000000000000060006000600060006019
:100800000060006000600060006000600060807F49
:10081000807F0000000000000000C071C071C07B3C
:10082000C07AC06AC06AC06EC064C060C060C06088
:10083000C060C060C0600000000000000000807167
:100840008071807980798079806D806D806D806520
:10085000806780678067806380630000000000001D
:100860000000001E003F0033806180618061806174
:1008700080618061806180610033003F001E000064
:10088000000000000000007E007F806380618061C6
:1008900080618063007F007E006000600060006017
:1008A00000600000000000000000001E003F003358
:1008B0008061806180618061806180618065806726
:1008C0000033803F401E0000000000000000007E5A
:1008D000007F8063806180618063007F007E0066AE
:1008E0000063006380618061C06000000000000060
:1008F0000000000E001F8031803100300038001EE3
:1009000000078003806180618031003F001E00008D
:10091000000000000000C0FFC0FF000C000C000C35
:10092000000C000C000C000C000C000C000C000C67
:10093000000C000000000000000080618061806108
:10094000806180618061806180618061806180619F
:100950008073003F001E0000000000000000C06027
:10096000C060C060803180318031001B001B001BE3
:10097000001B000E000E000E00040000000000002E
:100980000000C0C0C0C0C0C0C0C0C0C0C0CC804C8F
:10099000804C805E80528052807380618061000054
:1009A000000000000000C0C0806080610033003B98
:1009B000001E000C000C001E001F003B80718061B7
:1009C000C0C00000000000000000C0C08061806165
:1009D00000330033001E001E000C000C000C000C45
:1009E000000C000C000C0000000000000000803F24
:1009F000803F8001000300030006000C000C00187B
:100A0000001800300060807F807F00000000000040
:100A1000000F000F000C000C000C000C000C000C70
:100A2000000C000C000C000C000C000C000C000C66
:100A3000000F000F0000001800180018000C000C38
:100A4000000C000C00060006000600060003000370
:100A50000003000000000000001E001E000600064B
:100A60000006000600060006000600060006000656
:100A70000006000600060006001E001E0000000C16
:100A8000000C001E00120033003380618061000002
:100A90000000000000000000000000000000000056
:100AA0000000000000000000000000000000000046
:100AB0000000000000000000000000000000000036
:100AC000E0FF0000000000380018000C00000000EB
:100AD0000000000000000000000000000000000016
:100AE0000000000000000000000000000000000006
:100AF0000000001F803F80618001801F803F806177
:100B00008063807FC03800000000000000000060AB
:100B1000006000600060006E007F80738061806113
:100B2000806180618073007F006E00000000000023
:100B300000000000000000000000001E003F807365
:100B400080610060006080618073003F001E0000D3
:100B50000000000000008001800180018001801DF4
:100B6000803F807380618061806180618073803F9D
:100B7000801D0000000000000000000000000000D8
:100B80000000001E003F00738061807F807F006056
:100B90008071003F001E0000000000000000C00740
:100BA000C00F000C000C807F807F000C000C000C3C
:100BB000000C000C000C000C000C000000000000F9
:100BC0000000000000000000801D803F80738061F5
:100BD0008061806180618073803F801D80018063BF
:100BE000007F003E00000060006000600060006F59
:100BF000807F8071806180618061806180618061BF
:100C000080610000000000000000000600060000F7
:100C10000000003E003E000600060006000600063A
:100C200000060006000600000000000000060006A6
:100C300000000000003E003E000600060006000620
:100C4000000600060006000600060046007E003C86
:100C5000000000600060006000608061006300666A
:100C6000006C007C0076006300638061C06000005F
:100C7000000000000000003E003E000600060006E6
:100C80000006000600060006000600060006000634
:100C9000000600000000000000000000000000004E
:100CA000000080DDC0FFC0CEC0CCC0CCC0CCC0CC6A
:100CB000C0CCC0CCC0CC0000000000000000000090
:100CC000000000000000006F807F80718061806103
:100CD00080618061806180618061000000000000AF
:100CE00000000000000000000000001E003F8073B4
:100CF00080618061806180618073003F001E000020
:100D0000000000000000000000000000006E007FF6
:100D1000807380618061806180618073007F006E7C
:100D20000060006000600060000000000000000043
:100D3000801D803F807380618061806180618073ED
:100D4000803F801D80018001800180010000000043
:100D50000000000000000067803F003900300030D4
:100D60000030003000300030003000000000000093
:100D700000000000000000000000001E803F8061B5
:100D80000060007F803F80018061007F001E0000C6
:100D90000000000000000000000800180018007F9C
:100DA000007F001800180018001800180018801F95
:100DB000800F0000000000000000000000000000A4
:100DC00000008061806180618061806180618061FC
:100DD0008063807F803D0000000000000000000074
:100DE000000000000000C060803180318031001BB5
:100DF000001B001B000E000E00060000000000009B
:100E00000000000000000000000080DD80DD80DDCB
:100E100000550055005500770077002200220000A1
:100E200000000000000000000000000000008061E1
:100E300000330033001E000C000C001E0033003392
:100E400080610000000000000000000000000000C1
:100E500080618061803100330033001B001B001B68
:100E6000000E000E000E001C007C00700000000050
:100E7000000000000000C07FC07F8001000300066A
:100E8000000C00180030C07FC07F00000000000090
:100E90008003800700060006000600060006000E1C
:100EA000001C001C000E00060006000600060006DE
:100EB0008007800300060006000600060006000604
:100EC00000060006000600060006000600060006F2
:100ED00000060006000600060038003C000C000C6E
:100EE000000C000C000C000E00070007000E000CA8
:100EF000000C000C000C000C003C0038000000004E
:100F0000000000000000000000008038807F0047E3
:100F100000000000000000000000000000000000D1
:100F20002DE9F0410024002600275FF0000800258D
:100F30004048006810F00C00002806D0042808D0B3
:100F400008280AD00C283CD06DE0DFF8D404050056
:100F50006CE0DFF8C804050068E0DFF8BC04006856
:100F600010F03F000400DFF8B004006840020ED526
:100F7000DFF8A4040068C0F38810DFF8A014A1FB18
:100F800000012200002300F05FFA06000DE0DFF808
:100F900088040068C0F38810DFF88414A1FB000106
:100FA0002200002300F050FA0600DFF86C0400680D
:100FB000C0F30140401C40000700B6FBF7F00500FD
:100FC00034E0DFF85404006810F03F000400DFF85C
:100FD0004804006840020ED5DFF83C040068C0F306
:100FE0008810DFF83814A1FB00012200002300F074
:100FF0002BFA06000DE0DFF820040068C0F388102B
:10100000DFF81C14A1FB00012200002300F01CFAF1
:101010000600DFF804040068C0F302708046B6FBE7
:10102000F8F0050002E0DFF8F80305002800BDE84D
:10103000F08100000838024070B582B0040000253D
:101040002078C0077BD5DFF8E403006810F00C00BF
:10105000042817D0DFF8D403006810F00C0008282B
:1010600004D1DFF8B403006840020BD4DFF8BC03FE
:10107000006810F00C000C280ED1DFF89C0300680B
:10108000400209D5DFF8A0030068800357D56068E7
:10109000002854D10120BEE16068B0F5803F08D13E
:1010A000DFF88403006850F48030DFF87C130860B8
:1010B00024E06068B0F5A02F10D1DFF86C03006861
:1010C00050F48020DFF860130860DFF85C030068EC
:1010D00050F48030DFF8501308600FE0DFF8480369
:1010E000006830F48030DFF840130860DFF8380320
:1010F000006830F48020DFF8301308606068002852
:101100000ED000F05EFA0500DFF81C0300688003D3
:1011100015D400F056FA401B6528F5D303207AE178
:1011200000F04FFA0500DFF800030068800306D5E1
:1011300000F047FA401B6528F5D303206BE12078C7
:10114000800766D5DFF8E402006810F00C0F15D0B8
:10115000DFF8D802006810F00C00082803D1AE4870
:10116000006840020AD5DFF8C402006810F00C00E5
:101170000C281AD1A8480068400216D4DFF8A8024B
:101180000068800704D5E068012801D0012042E111
:10119000DFF8940200687FF0F8010840216950EA06
:1011A000C100DFF88412086033E0E06800281ED038
:1011B0000120DFF88012086000F003FA0500DFF874
:1011C00068020068800706D400F0FBF9401B032882
:1011D000F5D303201FE1DFF8500200687FF0F8012B
:1011E0000840216950EAC1008F49086011E00020E1
:1011F000DFF84012086000F0E4F905008A48006852
:10120000800706D500F0DDF9401B0328F6D3032044
:1012100001E12078000724D56069002810D0012062
:101220008549086000F0CDF9050081480068800715
:1012300017D400F0C6F9401B0328F6D30320EAE0D8
:1012400000207D49086000F0BCF90500784800687E
:10125000800706D500F0B5F9401B0328F6D303201C
:10126000D9E02078400740F180800026734800686C
:10127000C0000FD4002000907048006850F08050EB
:101280006E4908606D48006810F08050009000982A
:10129000012006006A480068C00513D46848006849
:1012A00050F480706649086000F08BF905006448CE
:1012B0000068C00506D400F084F9401B0328F6D36B
:1012C0000320A8E0A068012806D15648006850F025
:1012D0000100544908601CE0A06805280CD1514861
:1012E000006850F004004F4908604E48006850F014
:1012F00001004C4908600CE04A4800684008400082
:1013000048490860474800687FF0040108404549A3
:101310000860A06800280FD000F053F9050041488C
:101320000068800718D400F04CF9401B41F2893165
:101330008842F4D303206EE000F043F905003948F9
:101340000068800708D500F03CF9401B41F2893164
:101350008842F4D303205EE0F6B2012E05D137486F
:10136000006830F0805035490860A069002851D0ED
:101370002E48006810F00C00082849D0A069022807
:1013800035D100202F49086000F01BF905002648E0
:101390000068800106D500F014F9401B0328F6D33D
:1013A000032038E0E069216A0843616A50EA81104D
:1013B000A16A891EC903090C09040843E16A50EABD
:1013C0000160216B50EA01701349086001201D493A
:1013D000086000F0F6F8050013480068800119D491
:1013E00000F0EFF8401B0328F6D3032013E00020A1
:1013F0001449086000F0E5F805000B48006880011A
:1014000008D500F0DEF8401B0328F6D3032002E0E5
:10141000012000E0002076BD0438024000127A006E
:101420000024F400703802400038024008380240BE
:101430007438024000004742800E47424038024064
:1014400000700040600047421B4213D1094236D170
:101450002AB18446B0FBF2F002FB10C2704700F0E4
:10146000CFB8FCD30022002370470B0002000021FC
:1014700000207047904271EB030CF6D370B5B1FABF
:1014800081F4B3FA83F52C1BA340C4F1200532FA92
:1014900005F63343A2405FF00046E64002E05B08F9
:1014A0005FEA3202841A71EB030524BF2046294605
:1014B0007641F4D302000B003000002170BD012AF8
:1014C000CFD970B5140C20D0B1FA81F4B2FA82F5FC
:1014D000C4F120046419B4F12006D6D3B2405FF001
:1014E0000044F440002502E052085FEA3303C61AC4
:1014F00071EB020E24BF3046714664416D41F3D357
:1015000002000B002000290070BD0C46B1FBF2F177
:1015100002FB11452D0445EA1045B5FBF2F402FB30
:10152000145580B240EA0545B5FBF2F002FB1052BB
:1015300040EA044070BD000080B52C48006850F4BB
:1015400000702A4908602948006850F480602749E3
:1015500008602648006850F4807024490860032021
:1015600000F0AEF80F2000F004F800F0D7F80020EB
:1015700002BD10B504004FF47A701D490978B0FB24
:10158000F1F01C490968B1FBF0F000F0B2F8002856
:1015900001D001200CE0102C09D2002221005FF0C4
:1015A000FF3000F093F814480460002000E00120B0
:1015B00010BD124800680E49097840180F490860AC
:1015C00070470E480068704770B50400FFF7F9FFD8
:1015D0000500260016F1010F02D0054800783618E4
:1015E000FFF7EFFF401BB042FAD370BD003C024052
:1015F000100000200C000020080000207C080020C3
:101600007047000010F007023D4B1B6819004FF6B1
:10161000FF0319403B4B53EA02231943384B19602F
:10162000704737480068C0F30220704710B440B2DA
:10163000002808D50A01344B40B210F00F042344AF
:1016400003F8042C03E00A01304B40B21A5410BCDA
:10165000704770B4030013F00704D4F10706052E99
:1016600001D3042001E0D4F10700261D072E01D28A
:10167000002500E0E51E012616FA00F0401E084095
:10168000A8400121A940491E1140084370BC704781
:1016900010B50400601EB0F1807F01D301200EE080
:1016A000601E1B4908600F215FF0FF30FFF7BEFF8F
:1016B000002018490860072017490860002010BD65
:1016C00010B504002000FFF79DFF10BDF8B5040021
:1016D0000D0016000027FFF7A4FF070032002900C5
:1016E0003800FFF7B6FF0100200040B2FFF79EFF71
:1016F000F1BD10B504002000FFF7CAFF10BD0000C7
:101700000CED00E00000FA0518ED00E000E400E058
:1017100014E000E018E000E010E000E0704710B5D1
:1017200086B004002068184988422AD10020009021
:101730001648006850F48040144908601348006857
:1017400010F4804000900098082001900220029040
:1017500000200390032004900520059001A90C4867
:1017600000F01AF84FF480600190022002900020EF
:101770000390032004900520059001A9054800F07E
:101780000BF806B010BD00000038004040380240A1
:101790000008024000040240F8B4002300240025A1
:1017A00000263200102A80F0E280012696403300A5
:1017B0000E681E4034009C4240F0D7804E68022ED6
:1017C00002D04E68122E16D1D60800EB8606366A75
:1017D00035000F2612F00707FFB2BF00BE40B54329
:1017E0000E6912F00707FFB2BF00BE403543D608AE
:1017F00000EB860635620668350003261700FFB247
:101800007F00BE40B5430E7916F003061700FFB205
:101810007F00BE40354305604E68012E08D04E68FB
:10182000022E05D04E68112E02D04E68122E19D10C
:101830008668350003261700FFB27F00BE40B5431F
:10184000CE681700FFB27F00BE4035438560466812
:10185000350001269640B5434E68C6F30016964003
:1018600035434560C668350003261700FFB27F0088
:10187000BE40B5438E681700FFB27F00BE403543BF
:10188000C5604E68F60070D5002600963E4E36685C
:1018900056F480463C4F3E603B4E366816F4804618
:1018A0000096009E394E970856F8276035000F269F
:1018B00012F00307FFB2BF00BE40B543344EB04242
:1018C00001D100261EE0334EB04201D1012619E0BD
:1018D000314EB04201D1022614E0304EB04201D167
:1018E00003260FE02E4EB04201D104260AE02D4E11
:1018F000B04201D1052605E02B4EB04201D10626AB
:1019000000E00726F6B212F00307FFB2BF00BE40A8
:1019100035431E4E970846F82750244E366835004A
:10192000A5434E68F60300D52543204E3560204E72
:1019300036683500A5434E68B60300D525431C4ED6
:1019400035601C4E36683500A5434E68F60200D55A
:101950002543184E3560184E36683500A5434E684D
:10196000B60200D52543144E3560521C1AE7F1BC6F
:101970007047D2B2002A02D089B2816102E089B2F6
:101980000B0483617047000044380240083801406E
:10199000000002400004024000080240000C024027
:1019A000001002400014024000180240003C0140B8
:1019B000043C0140083C01400C3C014080B5012240
:1019C0004FF48051DFF87403FFF7D3FF00224FF488
:1019D0008071DFF86C03FFF7CCFF0A20FFF7F4FDFE
:1019E00001224FF48071D648FFF7C3FF0A20FFF7AA
:1019F000EBFD01BD01B500224FF48051CF48FFF748
:101A0000B8FF00224FF48041CC48FFF7B2FF5FF0EF
:101A1000FF3301226946CB4800F0EAF901224FF476
:101A20008051C648FFF7A5FF01BD38B504000D0081
:101A300000224FF48051C148FFF79BFF01224FF471
:101A40008041BE48FFF795FF5FF0FF332A0092B256
:101A50002100BC4800F0CCF901224FF48051B74876
:101A6000FFF787FF31BD80B5FFF7A8FF6420FFF7C0
:101A7000ABFDAE20FFF7BEFF2020FFF7BBFF10201D
:101A8000FFF7B8FFB020FFF7B5FFC820FFF7B2FFA0
:101A90000020FFF7AFFF1020FFF7ACFF4020FFF75B
:101AA000A9FF8120FFF7A6FFFF20FFF7A3FFA120DA
:101AB000FFF7A0FFA620FFF79DFFA820FFF79AFFE2
:101AC0003F20FFF797FFA420FFF794FFD320FFF7F5
:101AD00091FF0020FFF78EFFD520FFF78BFFF0204E
:101AE000FFF788FFD920FFF785FF2220FFF782FF4D
:101AF000DA20FFF77FFF1220FFF77CFFDB20FFF7E4
:101B000079FF2020FFF776FF8D20FFF773FF142069
:101B1000FFF770FFAF20FFF76DFF002000F00CF81B
:101B200000F01AF800208849088000208649488083
:101B300001208549487101BD00221100B1F5806F77
:101B400009D2C0B2002801D1002200E0FF227F4B61
:101B50005A54491CF2E7704710B500200400E4B263
:101B6000082C15DAB4F15000C0B2FFF743FF002093
:101B7000FFF740FF1020FFF73DFF80217348E4B2DC
:101B8000802202FB04F21044FFF74FFF641CE6E7DB
:101B900010BDF0B4C0B2802802DAC9B2402900DB1F
:101BA0004AE0694B1B79002B05D0D2B2002A01D143
:101BB000012200E00022D2B2012A1ED1C9B20823BC
:101BC000C9B2082491FBF4F480256C4354FA80F4E4
:101BD0005E4DC9B2082691FBF6F680277E4356FA81
:101BE00080F65A4FBE5D012791FBF3FC03FB1C13EB
:101BF00017FA03F333432B551EE0C9B20823C9B2C9
:101C0000082491FBF4F480256C4354FA80F44F4D82
:101C1000C9B2082691FBF6F680277E4356FA80F675
:101C20004A4FBE5D012791FBF3FC03FB1C1317FA1F
:101C300003F336EA03032B55F0BC70472DE9F64158
:101C400004001D00404800889DF8001008188028F6
:101C500006DA3D4840889DF801100818402801DB4D
:101C6000002049E0002006009DF80100864239D29C
:101C70000198E4B2B4F120019DF8012002FB01615A
:101C800030F811000700002080469DF800008045D4
:101C900026D217FA08F000040DD52A00D2B22A483D
:101CA00040883118C9B22848008818EB0000C0B23B
:101CB000FFF76FFF11E0EDB2002D01D1012200E02E
:101CC0000022D2B2204840883118C9B21E4800888C
:101CD00018EB0000C0B2FFF75CFF18F10108D4E771
:101CE000761CC1E7184800889DF8001050FA81F072
:101CF000154908802000C0B2BDE8F681F8B506009D
:101D00000C0015001F00307800280ED03B00DBB21D
:101D100021002A003078FFF791FF3178C0B2884265
:101D200001D0307802E0761CEDE73078F2BDC0B229
:101D3000054A1080C9B2044A51807047000402402D
:101D4000000002401808002070080020180400203D
:101D500010B50400002C01D1012048E0606A002881
:101D6000A06AB0F5005F94F85100002805D100206A
:101D700084F850002000FFF7D2FC022084F85100C4
:101D8000206800687FF040010840216808606068B2
:101D9000A1680843E1680843216908436169084371
:101DA000A16911F400710843E1690843216A0843FD
:101DB000A16A084321680860A069000C10F00400C3
:101DC000616A084321684860A06AB0F5005F02D1EB
:101DD000E06A216808612068C06930F40060216809
:101DE000C86100206065012084F85100002010BD0A
:101DF0002DE9F8430400894615001E0000275FF016
:101E0000000894F85000012801D10220E6E00120EA
:101E100084F85000FFF7D5FB070094F85100012823
:101E200002D002208046D1E0B9F1000F02D0ADB25D
:101E3000002D02D101208046C8E0032084F8510023
:101E400000206065C4F83090A586E5860020A06378
:101E50000020A0870020E08700206064002020642C
:101E6000A068B0F5004F05D12068006850F48040AC
:101E700021680860A06AB0F5005F0CD12068006896
:101E80004DF6FF710840216808602068006850F432
:101E900000502168086020680068400605D420686A
:101EA000006850F0400021680860E068B0F5006FFD
:101EB0002CD16068002802D0E08E012808D1B9F842
:101EC00000002168C86019F10209E08E401EE0861A
:101ED000E08E002847D020688068800709D5B9F8CF
:101EE00000002168C86019F10209E08E401EE086FA
:101EF000EEE7002E07D016F1010FE9D0FFF761FBE6
:101F0000C01BB042E4D3032080465FE06068002835
:101F100002D0E08E012808D199F8000021680873EA
:101F200019F10109E08E401EE086E08E00281AD0EB
:101F300020688068800709D599F800002168087337
:101F400019F10109E08E401EE086EEE7002E07D071
:101F500016F1010FE9D0FFF734FBC01BB042E4D308
:101F60000320804632E00097330001220221200046
:101F700000F036F8002802D00320804626E03A0020
:101F80003100200000F07FF8002804D001208046B6
:101F9000202060651AE0A068002808D10020009089
:101FA0002068C06800902068806800900098A06A4F
:101FB000B0F5005F05D12068006850F480502168BA
:101FC0000860606D002801D001208046012084F85F
:101FD0005100002084F850004046C0B2BDE8F283B2
:101FE0002DE9F04104000D0016001F00DDF81880F7
:101FF000206880682840A84201D1012000E000202C
:10200000B0423DD017F1010FF2D0002F05D0FFF7FD
:10201000D8FAB0EB0800B842EAD3206840687FF0F5
:10202000E0010840216848606068B0F5827F0ED109
:10203000A068B0F5004F03D0A068B0F5806F06D15E
:10204000206800687FF04001084021680860A06AAD
:10205000B0F5005F0CD1206800684DF6FF710840B4
:10206000216808602068006850F40050216808600A
:10207000012084F85100002084F85000032000E083
:102080000020BDE8F08170B582B004000D0016009C
:1020900000962B00002280212000FFF7A1FF0028DE
:1020A00005D0606D50F020006065032000E0002046
:1020B00076BD000038B5FFF73FFA00F014F900F0E4
:1020C00088F800F054F8FFF7CEFCAE48006800280E
:1020D00005D0022832D027D3032847D0F5E70020C7
:1020E000FFF72AFD00210220FFF721FE0123A64869
:1020F000D0E9004521002A00A448FFF7FFFD122186
:102100000220FFF714FE01239F48D0E9004521007B
:102110002A009F48FFF7F2FDFFF71EFD994800686F
:10212000401C98490860D0E74FF4FA60FFF74CFA7A
:1021300094480068401C93490860C6E70020FFF7F8
:10214000FBFC00210220FFF7F2FD01238E48D0E9BD
:10215000004521002A008F48FFF7D0FDFFF7FCFC67
:1021600088480068401C87490860AEE7ADE780B545
:1021700089488A4908604FF48270884948604FF462
:1021800000408649886000208449C8600020834957
:1021900008610020814948614FF400707F498861DF
:1021A00028207E49C86100207C49086200207B49C4
:1021B00048620020794988620A207849C8627748D5
:1021C000FFF7C6FD002803D09D21754800F0F9F8FF
:1021D00001BD00B587B0002000907248006850F043
:1021E0000400704908606F48006810F00400009017
:1021F0000098002000906B48006850F0800069490A
:1022000008606848006810F0800000900098002086
:1022100000906448006850F001006249086061481D
:10222000006810F0010000900098002000905D48C8
:10223000006850F002005B4908605A48006810F0DE
:1022400002000090009800224FF490715648FFF76A
:1022500090FB00224FF4A0415448FFF78AFB4FF453
:1022600000500190524802900020039001A951486B
:10227000FFF792FA0C2001900220029000200390B8
:10228000032004900720059001A94748FFF784FA2E
:102290004FF49070019001200290002003900020E4
:1022A000049001A94048FFF777FA4FF4A04001904D
:1022B00001200290002003900020049001A93B48D7
:1022C000FFF76AFA4FF4407001901220029001204B
:1022D0000390032004900420059001A93348FFF7E0
:1022E0005BFA07B000BD00B593B000200090324803
:1022F000006850F08050304908602F48006810F0A6
:10230000805000900098002000902C48006850F405
:1023100040402A4908602948006810F44040009075
:102320000098022006900120099010200A900220B7
:102330000C9000200D9010200E90C8200F900220CD
:102340001090072011900220129006A8FEF774FE4C
:10235000002801D000F034F80F20019002200290F4
:10236000002003904FF48050049000200590052138
:1023700001A800F027F8002801D000F021F813B0E0
:1023800000BD000078080020000000208827000819
:10239000AC270008942700080038004018080020E7
:1023A000402500083038024000000240000402408E
:1023B0000000211000080240403802400070004038
:1023C000FEE7FEE770B504000D00002C01D10120EE
:1023D000ABE0DFF86001006810F00F00A8420BD2FC
:1023E000DFF850010570DFF84C01006810F00F00B5
:1023F000A84201D0012098E02078800720D52078DD
:10240000400707D5DFF82401006850F4E050DFF8FA
:102410001C1108602078000707D5DFF8100100685C
:1024200050F46040DFF804110860DFF80001006834
:102430007FF0F0010840A1680843DFF8F010086061
:102440002078C0073BD56068012806D1DFF8E0009E
:102450000068800315D4012067E06068022802D07C
:102460006068032806D1DFF8C8000068800108D43E
:1024700001205AE0DFF8B8000068800701D401208D
:1024800053E0DFF8A8000068800880006168084316
:10249000DFF898100860FFF794F8060023480068FA
:1024A00010F00C006168B0EB810F08D0FFF789F8DD
:1024B000801B41F289318842F0D3032035E01D486A
:1024C000006810F00F00854209D21A4805701948BB
:1024D000006810F00F00A84201D0012025E020780C
:1024E000400707D51148006830F4E050E168084320
:1024F0000E4908602078000708D50C48006830F4C1
:102500006040216950EAC10008490860FEF708FDF3
:102510000949064A1268C2F30312895CC840074998
:1025200008600F20FFF725F8002070BD0838024032
:1025300000380240003C0240682700080C000020E0
:10254000433A5C576F726B73706163655C4861728C
:10255000647761726557616C6C65745C53544D337C
:1025600032437562655F46575F46345F56312E329F
:10257000312E305C50726F6A656374735C53544DD6
:102580003332343436452D4E75636C656F5C53536E
:1025900044313330365F4F4C45445F446973706C4F
:1025A00061795C5372635C6D61696E2E630000003B
:1025B0001248006850F47000104908601048006824
:1025C00050F001000E49086000200E4908600C48D8
:1025D00000680D4908400A4908600C480C49086029
:1025E0000748006830F48020054908600020094948
:1025F00008605FF0006008490860704788ED00E0FF
:102600000038024008380240FFFFF6FE1030002478
:10261000043802400C38024008ED00E019E050F8A0
:10262000041BCB0744BFA9F101035918121F002353
:10263000042A41F8043BF9D25FEA827C0B4604D5B8
:102640004FF0000CA1F800C09B1CD10744BF002133
:10265000197050F8042B002AE1D1704710B450F8DB
:10266000041B79B10268436802440830DC0744BFA8
:10267000A9F10104E31852F8044B43F8044B091F75
:10268000F9D1ECE710BC704710B50749794418310F
:10269000064C7C44163404E00A68081D114488473F
:1026A0000146A142F8D110BD2C0000004C000000F2
:1026B0004EF68851CEF20001086840F470000860C0
:1026C000BFF34F8FBFF36F8F4FF00070E1EE100A32
:1026D0007047000049FFFFFF680400001804002055
:1026E0000000000079FFFFFF1400000068000000F8
:1026F000000000200000000000F00BF8002801D0CE
:10270000FFF7C2FF0020C046C046FFF7D3FC00F031
:1027100002F80120704700F001B800000746384673
:1027200000F002F8FBE7000080B5C046C046024A50
:1027300011001820ABBEFBE7260002007047FEE741
:10274000FEE7FEE7FEE770477047704780B5FEF78B
:1027500030FF01BD0B120000C40100081000000092
:102760000024F40001000000000000000000000050
:102770000102030406070809014880470148004791
:10278000B1250008A1270008506C61636520796FAE
:102790007572000057656C6C20646F6E65210000D7
:1027A000C046C046FFF784FFFFF7A6FF66696E6765
:1027B00065722100FFF7FEBFFFF7FEBFFFF7FEBF08
:1027C000FFF7FEBFFFF7FEBFFFF7FEBFFFF7FEBF3D
:1027D000FFF7FEBFFFF7FEBFFFF7FEBFFFF7FEBF2D
:1027E000FFF7FEBFFFF7FEBFFFF7FEBFFFF7FEBF1D
:1027F000FFF7FEBFFFF7FEBFFFF7FEBFFFF7FEBF0D
:10280000FFF7FEBFFFF7FEBFFFF7FEBFFFF7FEBFFC
:10281000FFF7FEBFFFF7FEBFFFF7FEBFFFF7FEBFEC
:10282000FFF7FEBFFFF7FEBFFFF7FEBFFFF7FEBFDC
:10283000FFF7FEBFFFF7FEBFFFF7FEBFFFF7FEBFCC
:10284000FFF7FEBFFFF7FEBFFFF7FEBFFFF7FEBFBC
:10285000FFF7FEBFFFF7FEBFFFF7FEBFFFF7FEBFAC
:10286000FFF7FEBFFFF7FEBFFFF7FEBFFFF7FEBF9C
:10287000FFF7FEBFFFF7FEBFFFF7FEBFFFF7FEBF8C
:10288000FFF7FEBFFFF7FEBFFFF7FEBFFFF7FEBF7C
:10289000FFF7FEBFFFF7FEBFFFF7FEBFFFF7FEBF6C
:1028A000FFF7FEBFFFF7FEBFFFF7FEBFFFF7FEBF5C
:1028B000FFF7FEBFFFF7FEBFFFF7FEBFFFF7FEBF4C
:1028C000FFF7FEBFFFF7FEBFFFF7FEBFFFF7FEBF3C
:1028D000FFF7FEBFFFF7FEBFFFF7FEBFFFF7FEBF2C
:1028E000FFF7FEBFFFF7FEBFFFF7FEBFFFF7FEBF1C
:1028F000FFF7FEBFFFF7FEBFFFF7FEBFFFF7FEBF0C
:0C290000FFF7FEBFFFF7FEBFFFF7FEBFB2
:04000005080027A127
:00000001FF
